:020000040800F2
:10000000A04C01203D030008B73D00083D39000821
:10001000153C0008C1190008355000080000000018
:100020000000000000000000000000008502000841
:10003000952A000800000000D90200087547000852
:100040005703000857030008570300085703000828
:100050005703000857030008570300085703000818
:100060005703000857030008570300085703000808
:1000700057030008570300085703000857030008F8
:1000800057030008570300085703000857030008E8
:10009000511A0008570300085703000857030008C7
:1000A00057030008570300085703000857030008C8
:1000B0004B4800085703000857030008570300087F
:1000C00057030008570300085703000857030008A8
:1000D00057030008570300081D4C0008654C000832
:1000E0005703000857030008570300085703000888
:1000F0005703000857030008570300085703000878
:100100005703000857030008570300085703000867
:100110005703000857030008614800085703000808
:100120005703000857030008570300085703000847
:100130005703000857030008570300085703000837
:10014000911C0008570300085703000857030008D4
:10015000612700085703000857030008ED4C00080A
:100160005703000857030008570300085703000807
:1001700057030008570300085703000857030008F7
:10018000570300085703000800F002F800F06AF86F
:100190000AA090E8000C82448344AAF10107DA45E2
:1001A00001D100F05FF8AFF2090EBAE80F0013F0CA
:1001B000010F18BFFB1A43F001031847088F000016
:1001C000288F00000A444FF0000C10F8013B13F098
:1001D000070408BF10F8014B1D1108BF10F8015BA0
:1001E000641E05D010F8016B641E01F8016BF9D193
:1001F00013F0080F1EBF10F8014BAD1C0C1B09D1EA
:100200006D1E58BF01F801CBFAD505E014F8016B5B
:1002100001F8016B6D1EF9D59142D6D370470000ED
:100220000023002400250026103A28BF78C1FBD8FF
:10023000520728BF30C148BF0B6070471FB508F098
:10024000EAFC00F027FD04000020002107F03AFF3F
:10025000401C60600020002107F01EFFE0601FBD11
:1002600010B510BD00F023FA1146FFF7E7FF05F0C7
:10027000CAFB00F0C5FC03B4FFF7F2FF03BC05F0B6
:10028000E5F900002A4B19680868B0E8F04F80F3E0
:100290000988BFF36F8F4FF0000080F3118870471B
:1002A0000000000006480068006880F3088862B615
:1002B00061B6BFF34F8FBFF36F8F00DF00BF00BF8A
:1002C00008ED00E0DFF80C00016841F47001016006
:1002D000704700BF88ED00E0EFF30980BFF36F8F38
:1002E000134B1A681EF0100F08BF20ED108A20E98A
:1002F000F04F106008B44FF0500080F31188BFF346
:100300004F8FBFF36F8F07F04FF84FF0000080F36F
:10031000118808BC19680868B0E8F04F1EF0100F8B
:1003200008BFB0EC108A80F30988BFF36F8F704765
:1003300024000020EFF30580704700000948804743
:1003400009480047FEE7FEE7FEE7FEE7FEE7FEE7B7
:10035000FEE7FEE7FEE7FEE704480549054A064BCF
:10036000704700008547000889010008A046012069
:10037000A04C0120A0480120A0480120704730B5C2
:1003800005460B462A4613F8014B12F8010B08B13B
:10039000A042F8D01CB1002802D06D1CF1E728461D
:1003A00030BD032A40F2308010F0030C00F01580BD
:1003B00011F8013BBCF1020F624498BF11F801CB68
:1003C00000F8013B38BF11F8013BA2F1040298BFCD
:1003D00000F801CB38BF00F8013B11F0030300F037
:1003E0002580083AC0F0088051F8043B083A51F8DB
:1003F00004CBA0E80810F5E7121D5CBF51F8043BE0
:1004000040F8043BAFF30080D20724BF11F8013B52
:1004100011F801CB48BF11F8012B24BF00F8013BB4
:1004200000F801CB48BF00F8012B704710B5203A07
:10043000C0F00B80B1E81850203AA0E81850B1E89D
:100440001850A0E81850BFF4F5AF5FEA027C24BF53
:10045000B1E81850A0E8185044BF18C918C0BDE84A
:1004600010405FEA827C24BF51F8043B40F8043B13
:1004700008BF7047D20728BF31F8023B48BF11F8C8
:10048000012B28BF20F8023B48BF00F8012B704722
:1004900002F0FF0343EA032242EA024200F002B8FC
:1004A0004FF000020429C0F0128010F0030C00F09D
:1004B0001B80CCF1040CBCF1020F18BF00F8012B1B
:1004C000A8BF20F8022BA1EB0C0100F00DB85FEAE9
:1004D000C17C24BF00F8012B00F8012B48BF00F8B5
:1004E000012B70474FF0000200B513469446964624
:1004F000203922BFA0E80C50A0E80C50B1F1200137
:10050000BFF4F7AF090728BFA0E80C5048BF0CC0E4
:100510005DF804EB890028BF40F8042B08BF704742
:1005200048BF20F8022B11F0804F18BF00F8012BB4
:10053000704710B5044610F0030F08BF11F0030F09
:1005400040F015804FF0013E121FC0F20E8051F8AE
:10055000043BA3EB0E0C2CEA030C1CEACE1C08BFD8
:1005600040F8043BF0D0A1F1040102F10402521E54
:1005700008DB11F8013B002B00F8013BF7D11146D5
:10058000FFF78EFF204610BD7047704770477047D9
:1005900010B500F05FF8006810BD10B5044600F01B
:1005A00059F8046010BD00000FB4002300B589B0F5
:1005B0000CA900910B99CB60214B7B440693214BF6
:1005C0007B44079304236FF00042CDE901321E4AB9
:1005D0007A446B4608920246002008F089FB09B075
:1005E0005DF814FB70B506464FF0FF3015460C461B
:1005F000324686B00091CDE90101694600200490A1
:1006000004A8FFF7D1FF02460498211825B108B1CC
:10061000084600E020462860049800280DD0002AF3
:1006200002DD0098884208D03246081B69460094D3
:10063000CDE9010404A8FFF7B7FF06B070BD0000C4
:10064000B1000000C90000008900000000487047A8
:1006500040460120004870474046012010B504463E
:1006600000F04AF80068005D00F0010010BD42682B
:1006700042B1016811F8013B23B1521EC0E90012DA
:10068000184670470121C160881E704742685AB100
:10069000C368016843B983688B4205D0491E521C68
:1006A000C0E90012002070474FF0FF3070477546D8
:1006B000FFF7CCFFAE4605006946534620F0070021
:1006C000854618B020B5FFF747FEBDE820404FF043
:1006D00000064FF000074FF000084FF0000B21F02C
:1006E0000701AC46ACE8C009ACE8C009ACE8C009F9
:1006F000ACE8C0098D46704710B500F0CBFA001D7C
:1007000010BD00BFC17900002DE9FF4F06468BB038
:100710000878FF2806D0491C2D2805D000244FF06A
:10072000000908E000200CE00124F8E709EB890348
:10073000491C00EB43090878FF28F7D114B1C9F12F
:1007400000008146107800252C46AA4629462D280F
:1007500001D02B2804D1521C2D2813D00020824612
:100760008B461078FF280FD04FF0000C0A21521C46
:10077000A5FB017804FB018105FB0C11C5194BEBAE
:100780000104EEE70120EAE7002108464FF00000EF
:10079000BAF1000F02D000EB80004008C0F381578F
:1007A000012F01DD4FF0FF370E9955EA040009EBE8
:1007B00001080BD04FF0020918F5FA7F16DA4FEA5C
:1007C000CA70002F706008DD012007E04FEACA7090
:1007D000C6E900B00FB0BDE8F08F00203060FFF731
:1007E00039FFC0F800901821084616E0B8F5FA7FE6
:1007F00018DD002F02DAF748784401E0F648784423
:10080000D0E90010C6E9001040EACA707060FFF736
:1008100021FFC0F80090142108460FB0BDE8F04F4A
:1008200008F003BA002108464FF00000B8F10001BB
:10083000099002DAC7F1000200E03A4601DAC8F195
:10084000000106A800F02AFA06AB93E8070003AB04
:1008500083E8070044F23E005BEA0401009058463A
:1008600004D144F21E012C465D460091210C09047E
:10087000014306D10099240444EA15442D0410399B
:10088000009104F07F41014306D10099240244EA1B
:1008900015642D020839009104F07041014306D11E
:1008A0000099240144EA15742D01091F009104F0F8
:1008B0004041014306D10099A40044EA9574AD007B
:1008C000891E009104F00041084304D100986D197D
:1008D0006441401E00904FF001033A466846B8F16B
:1008E000000FCDE9014503A902DD00F020FF01E082
:1008F00000F0F3FEBAF1000F04460D4601D084F07B
:100900000044002108464FF00000099940F2FF77AB
:10091000484010F00C0F07D124F00040284303D0CA
:10092000C4F30A50B84212D1FFF794FEC0F8009009
:10093000C4F30A50B8420AD1A8487844D0E900105C
:10094000C6E9001004F000410843706042E7C6E9C0
:1009500000543FE72DE9FF4F1F464FF0000A4FF0CC
:10096000FF38454691B0D7E90146CDF83CA000F0EC
:1009700091F9C0680168405C1090B96912986D1CCB
:100980008847396A814688470028F6D1B9F1FF3F88
:100990000AD0002E24F4D06411DDB9F12B0F08D059
:1009A000B9F12D0F0BD102E0404615B013E744F426
:1009B0008064B96912986D1C8847761E814660056F
:1009C00004A901D52D2000E02B20002E01F1010B00
:1009D0000DF130088DF810003FDDB9F1690F08D036
:1009E000B9F1490F05D0B9F16E0F02D0B9F14E0F30
:1009F0001CD13B4601A8009580E85002DDE91212A7
:100A00006FF0020008F078F9C11CCED10EE0B96990
:100A100012986D1C884781461398761E44F4007422
:100A200005600F98401C002E0F9016DDB9F1300FB5
:100A3000EDD0B9F1780F02D0B9F1580F0DD10F9860
:100A400001280AD13B46CDE90054DDE91212001F0E
:100A5000029608F04FF9C11CA7D1109989453ED1E3
:100A600044F0800406E01399681CAAF1010A44F4DA
:100A700000740860B9696D1C1298761E884730288A
:100A80008146F0D02BE01099894505D1200603D48A
:100A9000761E44F0800418E0484604F0D0FD08B308
:100AA000761E0DF123018B4544F4007408D2A9F1A0
:100AB00030000BF8010B200607D5AAF1010003E076
:100AC000200602D40AF101008246A00502D513993E
:100AD000681C0860B96912986D1C88478146002E11
:100AE000D1DC53E0002E51DDB9F1650F02D0B9F130
:100AF000450F4BD1A00549D5B9696D1C1298761EDA
:100B000024F440748847002E81460CDD2B2804D045
:100B1000B9F12D0F07D144F48074B96912986D1C96
:100B20008847761E8146E00501D52D2100E02B2166
:100B300008F8011BCDF8008021E0761E0DF1390187
:100B4000884544F400740CD2A9F1300010F0FF0085
:100B500088F8000002D10099884509D908F10108F8
:100B600006E0E00501D51E4801E042F20F70824622
:100B7000B96912986D1C8847814613980560002E4C
:100B800004DD484604F05BFD0028D6D1F9691298CF
:100B90008847FF2053468BF8000088F800000020AB
:100BA0000A900B9004AA0CA90AA8FFF7ADFDA005B6
:100BB00002D46FF00100F8E614F0240F12D0E00721
:100BC0001CD13868DDE90A12031D3B600068C0E9EA
:100BD000001213E0F0880000E2880000A687000001
:100BE000F1D8FFFF0AA9684604F016FDE00705D119
:100BF0003868009A011D3960006802602846D4E612
:100C000010B50446AFF300802046BDE81040FFF762
:100C100032BB00004FF0013C50F8042B51F8043B6C
:100C20009A4221D1A2EB0C03934313EACC1317D1C0
:100C300050F8042B51F8043B9A4215D1A2EB0C0357
:100C4000934313EACC130BD150F8042B51F8043B17
:100C50009A4209D1A2EB0C03934313EACC13DBD0E5
:100C60004FF00000704700BFD01A01BAB1FA81F10D
:100C700001F0180122FA01F0CB40C1F12001DBB2F2
:100C8000C0B2C01A2CFA01F3D11A914311EAC31170
:100C9000E6D1704700487047604601202DE9F047D3
:100CA000814616468AB0354878440DC88DE80D0057
:100CB00032487844801C03AC0DC884E80D0041F62E
:100CC0009B300844372190FBF1F290FBF1F5A5F140
:100CD000800501FB12041B3C02D56442012000E0A8
:100CE0000020DFF898A080460027FA44AAF1BE0A47
:100CF0000EE0E0070AD03246684607EB47010123C1
:100D00000AEB810100F0FEFC8DE8070064107F1CF7
:100D1000002CEED1194F7F44AE3F19E0E80715D003
:100D200007EB04100DF1180A90E80E008AE80E0097
:100D3000C068F04201D1981908903246012306A9F3
:100D400003A800F0DFFC03AB83E807006D10641C10
:100D5000002DE3D14FF0010332466946B8F1000F90
:100D600003A802D000F0A4FC01E000F0CBFCC9E92C
:100D70000001C9F808200AB0BDE8F087008400002F
:100D80002DE9FF4F1F464FF03C0987B04FF000425E
:100D9000DDE9141001F10108DDF858A002EA405025
:100DA0000390002005908346054604460490B969E7
:100DB000461E08988847AAF1010A0290BAF1000F6E
:100DC0003BDD02982E2815D0102100F016FA0028DD
:100DD0002EDB4FF0010B0599014317D0B9F1000F3D
:100DE0000BDB4A46C11700F0F5F905430C43A9F1A6
:100DF000040905E0012004900BE008B145F001056D
:100E000001200590049820B9361D02E0049800B135
:100E1000361FB969089808F101088847BBF1000F2F
:100E2000AAF1010A0290C9D00999C1F80080C5E76A
:100E30000298702808D0502806D0F9690898884789
:100E4000BBF1000F14D04FE0002002900120BBF155
:100E5000000F049009D0B969089808F10108884783
:100E6000AAF10109B9F1000F07DCF9690898884770
:100E70006FF001000BB0BDE8F08F2B2804D02D28B7
:100E80000CD14FF0FF300490B969089808F10108BF
:100E90008847A9F10109B9F1000FE6DD411CE4D052
:100EA0000A2100F0AAF90028DFDB029908F1010805
:100EB00001EB810100EB41000290B9690898884775
:100EC0000A2100F09AF9099AA9F10109B9F1000F74
:100ED000C2F8008001DD0028E7DAF9690898884740
:100EE0000499029800FB016655EA040004D004F05E
:100EF0004041090002D006E0039898E0A40044EACB
:100F00009574AD00B61E04F00041080002D16D19C1
:100F10006441761E159810F0240F03D04FF00B0992
:100F20005C4803E04FF028096FF07D00824656458B
:100F300007DAAAEB06018944B9F1410F01DD4FF050
:100F4000410901200021A9F1010200F043F9024604
:100F500028400B462140084301D0012100E0002138
:100F6000501E029143F1FF3128402140084301D037
:100F7000012000E000200299834651EA0B014FD086
:100F8000002108464FF00000039900F4400039B1F9
:100F900000EB80004FF4400100EBD07001EA6000EC
:100FA0008015012802DD4FF0FF3000E013D0401C17
:100FB00036D0029860B3BBF1000F0CD14A46012035
:100FC000002100F007F928402140084301D001200A
:100FD00000E00020E0B101204A46002100F0FAF8CC
:100FE000034640190A4661412D1A8C4111D3B9F1CB
:100FF000400F09DD159810F0240F02D0AAF1340635
:1010000003E0AAF1170600E0761C00254FF000442B
:1010100006E05B1E42F1FF3220EA030521EA0204EA
:10102000CAF10100B04206DA1B4903980843019057
:10103000002000900EE0039AC4F3D321E80A0A438B
:10104000164940EA44500A433146CDE90002684659
:1010500004F0EBFA159810F0240F0BD01598C00788
:1010600015D13868DDE90012031D3B600068C0E956
:1010700000120CE002A8694604F0CEFA1598C007E9
:1010800005D13868029A011D396000680260404647
:10109000F0E6000002FCFFFF0000F07F0000F03FE0
:1010A0002DE9FF4F92461D4685B04FF00041DDE926
:1010B000124BDDE914727F1E01EA4B50414940F0AA
:1010C000FF4940EA0108002122F02000492804914C
:1010D00002D04E2828D04CE03BA0012607C88DE85E
:1010E0000700A9690698641C88477F1E014606D43C
:1010F0001DF8060018B121F0200181420BD0E969EA
:1011000006988847032E34D0082E32D06FF00100A5
:1011100009B0BDE8F08F761C032E01D0082EE0D177
:10112000601CCAF80000DCE7A9690698641C8847BF
:101130007F1E2AD420F02000412826D1A9690698D4
:10114000641C88477F1E20D420F020004E281CD12C
:10115000A9690698641C88477F1E48F4002849F452
:101160008009CAF8004001D4282806D0E969069809
:1011700088475FEACB7012D022E0A9690698641C08
:1011800088477F1E01D4002803DAE969069888475A
:10119000BCE72928F1D1641CCAF80040E9E71BF03C
:1011A000240F07D028680499031D2B600068C0E94C
:1011B000001805E02868021D2A600068C0F8009049
:1011C0002046A5E70000F07F494E46494E49545954
:1011D00000000000B2F120030AD5C2F1200301FA99
:1011E00002F120FA03F300FA02F041EA030170472A
:1011F00000FA03F14FF0000070473A2800D230386F
:1012000020F02002412A01D3A2F13700884201D305
:101210004FF0FF30704720F07F4C80EA030023F04E
:101220007F47ACEB070303F57C5300F0004003F16C
:10123000FF032DE980494FEA154B09B44FEA1443E7
:1012400025EA0B4E24EA03480FF2042606EB132787
:1012500049083E785FEA320203FB0667C7F50007DC
:1012600007FB06F64FEA54374FEAD64606F1020668
:1012700007FB066CCCF1005C4FEA1C472CEA074CDC
:1012800007FB06F40CFB06F504EB15464FEA961631
:1012900034BF00204FF000404FEAD13706FB07FC77
:1012A0004FEA1C4C0CFB0BF7D21B03FB0CF761EB5A
:1012B00007010CFB0EF7B0EB074072EB17420CFB7B
:1012C00008F734BFA2EB0742B2EB074261EB1741CC
:1012D0004FEA0C444FEA910706FB07FC4FEA1C4C0F
:1012E0000CFB0BF7B0EBC74072EB573203FB0CF76C
:1012F00034BFA2EBC742B2EBC74261EB57310CFBE4
:101300000EF7B0EBC70072EB57720CFB08F734BF57
:10131000A2EBC702B2EBC70261EB5771039F4FEA22
:10132000816141EA921104EBCC044FEAD1374FEAD4
:10133000826206FB07FC42EA90124FEA80604FEAA5
:101340001C4C0CFB0BF7D21B03FB0CF761EB0701EA
:101350000CFB0EF7B0EB074072EB17420CFB08F7E3
:1013600034BFA2EB0742B2EB074261EB17414FEAF1
:101370008C554FEA910704EB9C2406FB07FC4FEACF
:101380001C4C0CFB0BF7B0EBC74072EB573203FB66
:101390000CF734BFA2EBC742B2EBC74261EB573147
:1013A0000CFB0EF7B0EBC70072EB57720CFB08F7A3
:1013B00034BFA2EBC702B2EBC70261EB577115EB6A
:1013C0004C254FEA816141EA92114FEA82624FEA6D
:1013D000D13742EA901206FB07FC44F100044FEAC1
:1013E00080604FEA1C4C0CFB0BF7D21B03FB0CF785
:1013F00061EB07010CFB0EF7B0EB074072EB1742F5
:101400000CFB08F734BFA2EB0742B2EB074261EBDB
:10141000174115EB1C154FEA813141EA92414FEA21
:10142000823242EA90424FEA80304FEA0C7644F131
:10143000000448EA03434EEA0B484FF0000EB2EBBB
:10144000080C71EB030724BF624639464EEB0E0EC3
:101450004FF0000B0018524149414BEB0B0BB2EB24
:10146000080C71EB03077BF1000B24BF6246394681
:101470004EEB0E0E4FF0000B0018524149414BEB62
:101480000B0BB2EB080C71EB03077BF1000B24BFD5
:10149000624639464EEB0E0E51EA020718BF46F07F
:1014A000010616EB0E7655F1000254F1000103D54A
:1014B000BDE88901BDE80088BDE88901BDE80048B4
:1014C000B619524141EB0101A3F10103704780803D
:1014D0007F7E7D7C7B7A797877767675747372718E
:1014E00071706F6E6E6D6C6C6B6A6A696868676646
:1014F00066656464636362616160605F5F5E5E5DD8
:101500005D5C5C5B5B5A5A5959585857575656554B
:1015100055555454535352525251515050504F4FAD
:101520004F4E4E4D4D4D4C4C4C4B4B4B4A4A4A49FD
:101530004949484848474747474646464545454440
:1015400044444443434343424242424141410000F8
:1015500046EA0646A3F570534FEA164646EA425657
:101560004FEAD22242EA415210B54FEAD121A3F10B
:10157000010300F02FF820F0004000F1020C00F011
:10158000004701EB00501146BCF5006F40EA070030
:1015900000D210BDBAF1000F0AD01CB503B44FF051
:1015A00004004FF004014FF000000FBCBDE81040F4
:1015B0004FF00001BBF1010FB9BF04484FF0FF31FC
:1015C0000348002140EA070010BD00BFFFFFEF7F86
:1015D0000000F07F002B9C4630D477002BD01CB548
:1015E0004FEA370703B44FF010004FF01001BAF183
:1015F000000F06D0BCF1000FDCBF40F0080040F047
:1016000008014FF000000FBCBDE810400BF1010BCA
:10161000BBF1010F08BF5FEA170722BF12F10102F9
:1016200011F101014FF0004143F1000300F00040CF
:1016300043EA00007047F9D35708D0E746EA064668
:1016400013F1400F4FEA16461FDD13F1200FDFBFE5
:1016500016430A46002120335B42BED0C3F1200767
:1016600046EA064602FA07F74FEA164646EA070632
:10167000C3F1200722FA03F201FA07F721FA03F176
:101680004FF0000342EA0702A7E746EA020646EAED
:1016900006464FEA164646EA0106BCBF46EA06463B
:1016A000360C4FF000034FF000024FF0000194E7BA
:1016B0002DE9804C9A46934670B491E8380007C8EB
:1016C00031EA400C48BF34EA430C03D5FFF7A3FDD1
:1016D000FFF780FFF0BCBDE8008C2DE9804C9A46F6
:1016E000934670B491E8380007C831EA400C48BF0F
:1016F00034EA430C03D5FFF78EFDFFF729FFF0BC5A
:10170000BDE8008C2DE9804C9A46934670B491E870
:10171000380007C810F0804F08BF13F0804F03D186
:1017200000F01AF8FFF756FFF0BCBDE8008C2DE979
:10173000804C9A46934670B491E8380007C810F080
:10174000804F08BF13F0804F03D100F005F8FFF77A
:10175000FFFEF0BCBDE8008C20F07F4780EA03006C
:1017600023F07F4C07EB0C03A3F57C5300F0004003
:10177000A3F1FE0392F0000F00F0B38095F0000F8C
:1017800000F077802DE901494FEA11404FEA1446F5
:1017900021EA004800FB06FC24EA064708FB06F69F
:1017A00007FB08F800FB07F718EB06484CEB164C54
:1017B0004FEA124B18EB07484FEA15464CEB17401F
:1017C00022EA0B4E0BFB06FC25EA06470EFB06F64B
:1017D00007FB0EFE0BFB07F71EEB064E4CEB164C01
:1017E0004FF000061EEB074E4CEB174B18EB0B08A7
:1017F00040F1000018EB0E0B58EB000840F1000020
:101800008F1A4FF000013CBFC943661B14BFB5EBF4
:10181000040C00213CBFC943F61B4FEA17444EEAB3
:101820008E0E27EA04454FEA1C4704FB07622CEAA8
:10183000074C05FB07F70CFB05F604FB0CFC16EB4D
:10184000074642EB174216EB0C4642EB1C421BEBE1
:10185000060658EB0202414146EA9E0601D5BDE864
:101860000189B619524141EB0101A3F10103BDE821
:1018700001894FEA14454FEA114724EA054621EA57
:10188000074C05FB07F406FB07F70CFB06F105FB0D
:101890000CFC11EB074144EB17444FEA124711EBE4
:1018A0000C4144EB1C4422EA074C05FB07F206FB03
:1018B00007F70CFB06F605FB0CFC16EB074642EBA4
:1018C000174216EB0C4642EB1C456A1854F1000116
:1018D00048BF7047B619524141EB0101A3F1010322
:1018E000704795F0000F37D04FEA11424FEA144786
:1018F00021EA024624EA074C02FB07F106FB07F740
:101900000CFB06F402FB0CFC14EB074441EB174103
:101910004FEA154714EB0C4441EB1C4125EA074CF8
:1019200002FB07F506FB07F70CFB06F602FB0CFCB7
:1019300016EB074645EB174516EB0C4645EB1C42EC
:10194000121951F1000148BF7047B619524141EBDD
:101950000101A3F1010370474FEA14454FEA114713
:1019600024EA054621EA074C05FB07F106FB07F7C9
:101970000CFB06F24FF0000605FB0CFC12EB0742D5
:1019800041EB174112EB0C4251EB1C4148BF704731
:10199000921841EB0101A3F10103704701EBD173F0
:1019A0005B105B42834202DD4A1E024410B201EB2F
:1019B000D173B0EB630F02DD4A1E821A10B270477A
:1019C00000BFFEE72DE9F04385B004460D461646FC
:1019D0001F464FF0000840F2FF10009000208DF8E5
:1019E00008008DF8090008208DF80A00200A8DF8FB
:1019F0000B00E1B28DF80C10290A8DF80D10E9B238
:101A00008DF80E10310A8DF80F10F1B28DF810100C
:101A1000390A8DF81110F9B28DF8121069460B4889
:101A200000F03FFD814600BF03E008F101001FFA0E
:101A300080F84946054800F0C7FD18B940F6FF7028
:101A40008045F2DB05B0BDE8F08300000064004093
:101A500000B585B002210B4800F078FB78B1022177
:101A6000084800F07FFA0849064800F05FFA6A4625
:101A70000021044800F08DFC684600F007F805B02E
:101A800000BD0000006400400800003270B52DED7C
:101A9000088B04462068A0F20520C8B301284CD06A
:101AA00002285ED1A17B607B41EA002000B22F4971
:101AB0004880207BE17A40EA01202C4908804FF4DD
:101AC00000521C21294802F025F9284880694FF46A
:101AD000B47100FB01F5E91705EBD141481306F09D
:101AE000B8FD9FED230B53EC102B06F0EFFB9FEDA1
:101AF000220B53EC102B06F0E9FB9FED210B53EC6E
:101B0000102B06F02DFF06F075FD1849486129E0FD
:101B1000FFE7207BE17A40EA01201B4908804FF46F
:101B200000520321184802F0F5F8A17B607B41EADE
:101B3000002000B21449488014E0207BE17A40EA9A
:101B40000120124908804FF4005203210F4802F08F
:101B5000E1F8A17B607B41EA002000B20B4948809C
:101B600000E000BF00BFBDEC088B70BD60370120F6
:101B7000000000000000F83F0000000000003340BB
:101B80000000000000804740283701204437012032
:101B90002DE9F0418AB004460D4616461F46DDF891
:101BA00040800121082002F0D3F90121480602F00B
:101BB000DFF90320089002208DF8240000208DF822
:101BC000260002208DF8250001208DF8270008A9A5
:101BD0002D4801F08DF9092200212B4801F0D0F9A0
:101BE00009220121284801F0CBF900208DF81A00C4
:101BF00001208DF81B0000208DF81C008DF81D00C1
:101C00008DF81E008DF81F008DF816808DF8174096
:101C10008DF818508DF81960ADF8147005A91B489F
:101C200000F02DFB00208DF80E008DF80F00012034
:101C30008DF810000020ADF80400ADF80600ADF8F6
:101C40000800ADF80A00ADF80C0001208DF8110075
:101C500001A800F0F7F9012202210C4800F006FB70
:101C600014208DF8000004208DF8010000208DF86C
:101C7000020001208DF80300684602F09DF8002064
:101C80000AB0BDE8F0810000000C02400064004092
:101C900010B502210A4800F059FA78B1022108482B
:101CA00000F060F90749064800F040F9064A0021B3
:101CB000034800F06EFB044800F008F810BD000077
:101CC00000680040080000329837012010B5044633
:101CD0002068B0F5027F1FD0A0F2FF3000283ED070
:101CE000012856D1207BE17A40EA012000B22A493E
:101CF0008880A17B607B41EA002000B22649C88031
:101D0000217CE07B41EA002000B223490881607C0D
:101D10008872A07CC8723DE0207BE17A40EA012015
:101D20001E4908804FF400525F211C4801F0F2FF69
:101D30001A4989694FF4B47201FB02F0C11700EB34
:101D4000D14149135F2291FBF2F1144A1161A17B49
:101D5000607B41EA002000B2114648801AE0A07C76
:101D60000F490870617C207C41EA002000B20D49D7
:101D70000880E17BA07B41EA00200B490880617B61
:101D8000207B41EA002009490880E07A0849087070
:101D900000BF00BF00BF10BDBE3701207C3701204F
:101DA000C8000020CA000020CC000020CE00002087
:101DB000D00000202DE9F0418AB004460D461646B9
:101DC0001F46DDF840800121022002F0C1F8012108
:101DD000880602F0CDF809220521364801F0D0F836
:101DE00009220621334801F0CBF86020019002203F
:101DF0008DF8080000208DF80A0003208DF80900F6
:101E000001208DF80B0001A92A4801F071F840204B
:101E10008DF8000002208DF8010001208DF80200ED
:101E20008DF80300684601F0C7FF234800F0EEF884
:101E300007A800F026FB00208DF822008DF8230073
:101E40008DF824008DF825008DF8260001208DF8EE
:101E500027008DF81E808DF81F408DF820508DF8DA
:101E60002160ADF81C7007A9134800F008FA0E2095
:101E70008DF8160000208DF8170001208DF818004D
:101E80000020ADF80C00ADF80E00ADF81000ADF874
:101E90001200ADF8140001208DF8190003A800F01D
:101EA000D1F801220221044800F0E0F900200AB034
:101EB000BDE8F081000402400068004070B586B0C3
:101EC0000446002540F2FF10019000208DF80C0020
:101ED0008DF80D0008208DF80E0000208DF80F0001
:101EE00000218DF810108DF811108DF812108DF85A
:101EF00013108DF81410210A8DF815108DF8164066
:101F000001A9094800F0CDFA064600BF01E0681CAF
:101F100085B23146044800F057FB18B940F6FF700F
:101F20008542F4DB06B070BD0068004000220C4B17
:101F3000994202D10023836111E0C1F3130201F041
:101F400000730BB1C2600AE001F080630BB1026163
:101F500005E001F000630BB1826000E04260704771
:101F60007000F030B1F5007F3AD00FDC202928D086
:101F700006DC01291CD004291DD0082940D11DE010
:101F8000402921D0B1F5807F3AD126E0B1F5004F4C
:101F900031D006DCB1F5806F25D0B1F5006F2FD1BF
:101FA00024E0B1F5803F12D0B1F5003F28D111E017
:101FB000154A826025E00822C26022E01022C26039
:101FC0001FE0082202611CE01022026119E00822D1
:101FD000426016E01022426013E00422426010E0EA
:101FE000042242600DE0042242600AE00022826185
:101FF0000422426005E0002282610422426000E087
:1020000000BF00BF704700000101010010B5044689
:102010000B48844209D10121480601F0B9FF002193
:102020004FF0007001F0B4FF08E00121880601F0D4
:10203000AFFF00214FF0806001F0AAFF10BD00004B
:102040000064004010B50021837A012202FA03F1F6
:102050003D4A126842F001023B4B1A603A4A1C3278
:1020600012688A43384B1C331A60027BCAB9364A5D
:102070000C3212688A43344B0C331A604288C3888E
:1020800042EA0343304A4032847A42F834300288CC
:10209000838842EA03432C4A4032847A02EBC4022A
:1020A0005360027B012A19D1274A0C3212680A4375
:1020B000254B0C331A604288038842EA0343224AC4
:1020C0004032847A42F83430C288838842EA03433B
:1020D0001D4A4032847A02EBC4025360C27A3AB994
:1020E000194A121D12688A43174B1B1D1A6006E01D
:1020F000154A121D12680A43134B1B1D1A600289F0
:1021000032B9114A143212688A430F4B14331A60E1
:102110000289012A06D10C4A143212680A430A4B7A
:1021200014331A60427B012A06D1074A1C32126816
:102130000A43054B1C331A60034A126822F001025D
:10214000014B1A6010BD00000066004070B50446E7
:102150000D46002660692840002871D0B5F5807FC3
:102160005CD010DC082D35D006DC012D20D0022DEE
:1021700024D0042D72D127E0102D31D0202D35D060
:10218000402D6BD138E0B5F5004F60D009DCB5F5D6
:10219000007F49D0B5F5806F4CD0B5F5006F5DD1AB
:1021A0004FE0B5F5803F2DD0B5F5003F56D12FE07B
:1021B000A0682D4900F058FA064651E0E068032176
:1021C00000F052FA06464BE0E068082100F04CFAB5
:1021D000064645E0E068102100F046FA06463FE07A
:1021E0002069032100F040FA064639E02069082101
:1021F00000F03AFA064633E02069102100F034FA84
:1022000006462DE06068082100F02EFA064627E019
:102210006068102100F028FA064621E0A06901213B
:1022200000F022FA06461BE0A069022100F01CFA29
:10223000064615E0A069042100F016FA06460FE0F4
:102240000FE0A069702100F00FFA064608E0606810
:10225000042100F009FA064602E0FFE7002600BF6D
:1022600000E00026304670BD010101001AB143694B
:102270000B43436102E043698B434361704730B5D0
:10228000024600200023146824F00204146014683D
:1022900044F00104146000E05B1C546804F0010485
:1022A0001CB94FF6FF74A342F6D1546804F0010440
:1022B0000CB900206CE08C79012C04D1146844F036
:1022C0008004146003E0146824F080041460CC7966
:1022D000012C04D1146844F04004146003E0146835
:1022E00024F0400414600C7A012C04D1146844F0EA
:1022F0002004146003E0146824F0200414604C7A75
:10230000012C04D1146844F01004146003E0146834
:1023100024F0100414608C7A012C04D1146844F069
:102320000804146003E0146824F008041460CC7AF4
:10233000012C04D1146844F00404146003E0146810
:1023400024F0040414608C78A407CD7844EA056472
:102350000D7944EA05444D7944EA05540D886D1E13
:102360002C43D461146824F001041460002300E0BD
:102370005B1C546804F001041CB14FF6FF74A342C7
:10238000F6D1546804F001040CB1002000E00120F3
:1023900030BD10B500F5D87303EB01131B6803F0D3
:1023A00004031372137A53B900F5D87303EB0113C6
:1023B0001B6840F2FF7404EA5353136009E000F510
:1023C000D87303EB01131B686FF0604404EAD30376
:1023D000536000F5D87303EB01131B6803F002038D
:1023E000537200F5D87303EB01135B6803F00F031E
:1023F000937200F5D87303EB01135B681B0AD37467
:1024000000F5D87303EB01139B68D37200F5D87302
:1024100003EB01139B681C0A147300F5D87303EBDC
:1024200001139B681C0C547300F5D87303EB011364
:102430009B681B0E937300F5D87303EB0113DB68E5
:10244000D37300F5D87303EB0113DB681C0A147413
:1024500000F5D87303EB0113DB681C0C547400F512
:10246000D87303EB0113DB681B0E937421B9C368A7
:1024700043F02003C36003E0036943F020030361DA
:1024800010BD00218171C171017241728172C172EE
:102490008170C1700321017102214171012101800C
:1024A000704710B502460020936803F08063B3F1D3
:1024B000806F00D110E0936803F00063B3F1006F08
:1024C00001D1012008E0936803F08053B3F1805FED
:1024D00001D1022000E00420042874D002F5C0736A
:1024E00003EB00131B6803F0010402F5C07303EB58
:1024F00000131C600B7A7BB94B7A0C8843EA445377
:1025000002F5C07404EB00142468234302F5C07480
:1025100004EB0014236010E00B7A4C6843EAC40318
:102520004C7A234302F5C07404EB0014246823435F
:1025300002F5C07404EB001423608B7A03F00F03E0
:102540008B7202F5C07303EB00135B6823F00F047A
:1025500002F5C07303EB00135C6002F5C07303EB7C
:1025600000135B688C7A234302F5C07404EB0014FB
:1025700063608B7B1C064B7B44EA03440B7B44EA81
:102580000323CC7A234302F5C07404EB0014A36048
:102590008B7C1C064B7C44EA03440B7C44EA0323FB
:1025A000CC7B234302F5C07404EB0014E36002F516
:1025B000C07303EB00131B6843F0010402F5C07302
:1025C00003EB00131C6010BD10B50246002321B1BF
:1025D000012907D002290FD109E090681D4C00EABB
:1025E00004030BE090681C4C00EA040306E09068CA
:1025F0001A4C00EA040301E0002300BF00BF184C9E
:10260000181BA34216D007DC83B16FF0806018441A
:1026100070B1022818D111E0B0F5007F10D0114C34
:10262000204448B1B0F5003F0ED10BE002230DE08D
:1026300000230BE0002309E0002307E0012305E06D
:10264000012303E0012301E0002300BF00BFD8B253
:1026500010BD000003000004000300080000031088
:10266000000100080001FFF70246002002EA010312
:102670000BB1012000E00020704710B501FB02F310
:1026800003EBD374B0EB640F01DD01FB120001FB1F
:1026900002F4634203EBD374B0EB640F02DA01FB84
:1026A00002F3181A10BD000000F0CEFC2A490860A1
:1026B000392004F0CDFC4DE027480068B0F9000057
:1026C00010F5257F40DB24480068B0F90000B0F524
:1026D000257F39DC20480068B0F9020010F5257F1D
:1026E00032DB1D480068B0F90200B0F5257F2BDC15
:1026F00019480068B0F9040010F5257F24DB16485E
:102700000068B0F90400B0F5257F1DDC12480068B0
:10271000B0F9060010F5257F16DB0F480068B0F908
:102720000600B0F5257F0FDC0B480068B0F9080003
:1027300010F5257F08DB08480068B0F90800B0F5FF
:10274000257F01DC01F004F9002004490860142011
:1027500004F07EFCB0E70000700100209C82404243
:1027600010B51249124800F027F901281DD10020A8
:10277000104908600D490E4800F024F80B490C4838
:1027800000F03AF80C490D4801F0A6FC0C4800682E
:10279000401C0B49086008460068B0F5FA7F04D178
:1027A00001F0D6F800200649086010BD008800201E
:1027B0008864024080024242AC370120BE370120CB
:1027C000F80000200246094B9A4201D2084801E075
:1027D0000648103801F000531BB1064B0B40C36094
:1027E00002E0044B0B40836070470000106402401D
:1027F000006002407D0F7D0F0246094B9A4201D2D4
:10280000084801E00648103801F000531BB1064BA0
:102810000B40C36002E0044B0B4083607047000034
:1028200010640240006002407D0F7D0F21B10268FC
:1028300042F00102026003E0026822F0010202603D
:1028400070470000016821F0010101600021016072
:1028500041608160C1600161212141614A49884232
:1028600004D13D21484A103A91608CE04649183124
:10287000884205D14FF47461434A103A916082E076
:1028800041493031884205D14FF474113E4A103A23
:10289000916078E03C494831884205D14FF074613D
:1028A000394A103A91606EE037496031884204D16C
:1028B0003649354A103AD16065E03349783188426B
:1028C00004D13349304A103AD1605CE02E4990314E
:1028D000884204D12F492C4A103AD16053E02A494A
:1028E000A831884205D14FF03D51274A103AD160B6
:1028F00049E02949884204D13D21274A083A11601C
:1029000041E025491831884205D14FF47461224ACB
:10291000083A116037E020493031884205D14FF440
:1029200074111D4A083A11602DE01B494831884254
:1029300005D14FF07461184A083A116023E0164936
:102940006031884204D11149134A121F11601AE004
:1029500011497831884204D10D490F4A121F116084
:1029600011E00D499031884204D10A490A4A121FE8
:10297000116008E00849A831884204D14FF03D5168
:10298000054A121F11607047106002403D00002090
:10299000400F002000003D2010640240014600204E
:1029A0000A6802F001020AB1012000E0002070472D
:1029B0000146486880B2704730B503460A46002099
:1029C00000240B4DAB4201D20A4901E008491039FD
:1029D00002F000550DB14C6800E00C68064D2C402B
:1029E00004EA02050DB1012000E0002030BD000026
:1029F00010640240006002407D0F7D0F10B501F0B1
:102A000080034BB122B1436943F08003436103E08B
:102A1000436923F08003436180290BD02AB1036806
:102A200001F01E042343036004E0036801F01E0468
:102A3000A343036010BD000010B500220268134BD1
:102A40001A40CC680B6823434C6923438C692343A9
:102A5000CC6923430C6A23434C6A23438C6A234387
:102A60004C6B23438C6B23431A430260426922F070
:102A70000702D1E90B3423431A4342610B694360D7
:102A80004B6883608B68C36010BD00003F801CF002
:102A90004160704770470000052004F0D9FA00F04B
:102AA00091F92BE0164800681649086001F0C8FC4F
:102AB00001280CD101F0CCFC012803D001F0C8FCA6
:102AC000032804D100F026F801F02AF813E04FF4AF
:102AD00048700D490860091D08600C490860091D0F
:102AE000086000200A49A1F8D000A1F8D20081F8BE
:102AF000D40001F00BF8022004F0AAFAD2E700009B
:102B0000600100208C024242340400403C0C004032
:102B10006045012010B503F07FFF01F07DFC9F4967
:102B200081F8CE0001F060FC9C4981F8CD00084698
:102B300090F8CE0050B94FF47A7099490860091D99
:102B4000086098490860091D086023E0934890F8E0
:102B5000CE0001280AD140F22E4091490860091D9B
:102B6000086090490860091D086013E08B4890F8E0
:102B7000CE00022804D14FF4487003F07BFF09E037
:102B80004FF4487086490860091D0860854908604F
:102B9000091D0860814890F8CD0002281CD17F48AB
:102BA0000068B0F9022042F21C5300217B480C302F
:102BB00001F054FC7949A1F8D00008464068B0F90A
:102BC000022042F21C53002174480C3001F046FCF4
:102BD0007249A1F8D200E0E0704890F8CD000028DA
:102BE0007ED16E480068B0F90200C82818DB6B4837
:102BF0000068B0F9020010F1C80F11DC6A480088C3
:102C0000401C6949088008460088B0F52F7F07DB23
:102C100066480088401C6549088000206249088099
:102C20005E484068B0F90200C82818DB5B4840687D
:102C3000B0F9020010F1C80F11DC5D480088401C9B
:102C40005B49088008460088B0F52F7F07DB5948AC
:102C50000088401C57490880002055490880534986
:102C6000088800EBD0714910A0EB410121B14FF46D
:102C7000FA705149088003E04FF60C604E49088015
:102C80004C49088800EBD0714910A0EB410121B1FB
:102C90004FF60C604949088003E04FF4FA70474949
:102CA00008803E480068B0F902203C48D0ED370A61
:102CB0004148008800EE100AB8EE400A20EE800A73
:102CC000BDEEC00A10EE100A01B242F21C533348A6
:102CD0000C3001F0C3FB3149A1F8D000084600E0F8
:102CE0001CE04068B0F902200846D0ED370A3348AE
:102CF000008800EE100AB8EE400A20EE800ABDEE11
:102D0000C00A10EE100A01B242F21C5323480C30E4
:102D100001F0A4FB2149A1F8D2003EE01F4890F841
:102D2000CD0003281DD11D480068B0F9022042F2F1
:102D30001C53234919480C3001F090FB1749A1F8A6
:102D4000D00008464068B0F9022042F21C534FF40C
:102D5000FA7112480C3001F081FB1049A1F8D20041
:102D60001BE00E480068B0F9022042F21C5300211B
:102D70000A480C3001F072FB0849A1F8D00008465F
:102D80004068B0F9022042F21C53002103480C3085
:102D900001F064FB0149A1F8D20010BD604501209B
:102DA000340400403C0C0040640100206801002015
:102DB000660100206A0100206C0100206E010020E5
:102DC0000CFEFFFF10B500F033F91A49086000F05F
:102DD00033F918494860022081F8CD0081F8CE000F
:102DE0009FED152ADFED141A9FED131ADFED120A7D
:102DF000B2EE080A01F10C0002F048FE9FED0E2A27
:102E0000DFED0D1A9FED0D1ADFED0C0A9FED0C0A98
:102E100008486C3002F03AFE00200649A1F8D000C4
:102E2000A1F8D20081F8D4004FF4487003F022FEDC
:102E300010BD00006045012000000000CDCCCC3D5D
:102E40000000484210B5532140F63E0000F0FAFF62
:102E50004FF47A7002490860091D086010BD000037
:102E600034080040012004F0F3F81A4800F088FC10
:102E70002FE01948008810B902F030FD29E017480A
:102E8000006817490860174800681749C1F88402AC
:102E90000120134908390860144901F1600002F06B
:102EA0002FFE0C4800F016FC0A4BB3F9522ADB68DF
:102EB000B3F9D210074BDB68B3F9D0000023FEF75B
:102EC00081FD0449B1F9E60BFEF7F8FF022004F09A
:102ED000BFF8CEE704390120300100201C0100209A
:102EE0008802424220010020000042425C4301204F
:102EF000F0B50A4600210023002400BF3DE0012573
:102F000005FA01F3156805EA03049C4234D105680B
:102F10004F000326BE40B543056015794E00B5400D
:102F20000668354305601579012D02D01579022D0B
:102F300016D185684F000326BE40B543856055799C
:102F40004E00B540866835438560456801268E4051
:102F5000B5434560456896798E40B6B235434560C5
:102F6000C5684F000326BE40B543C560D5794E0005
:102F7000B540C6683543C560491C1029BFD3F0BDB4
:102F8000F0B5002300244D07ED0E02FA05F3CE1034
:102F900000F1200555F826504E07F70E0F26BE40CB
:102FA000B543CF1000F1200646F82750CE1000F1AF
:102FB000200555F8265045EA0304CE1000F12005FF
:102FC00045F82640F0BD41837047018370470000FB
:102FD00000487047D437012030B5034613B94FF687
:102FE000FF7030BD09E013F8014B82EA0400C0B263
:102FF000054D35F8100080EA2222081EA1F10101DA
:10300000F1D11046EDE700002E8E000830B50346E2
:1030100005E013F8010B80EA02040448025D081E73
:10302000A1F10101F5D1104630BD00002D8D000841
:103030000048704728370120004870474437012076
:10304000004870476037012000487047BE370120B4
:10305000004870477C3701202048D0F8A400B0F920
:10306000020000EB80001E4908601C48B0F9520ABB
:103070001C4908601948D0F8540AB0F902001A49EE
:1030800008601648B0F9E60B184908600020184996
:10309000086018490860114890ED8A0ABDEEC00A20
:1030A000154880ED000A0D4890ED8B0ABDEEC00A70
:1030B000124880ED000A0948406890ED000ABDEE14
:1030C000C00A0F4880ED000A0448406890ED010AEC
:1030D000BDEEC00A0B4880ED000A7047043901209C
:1030E00034010020380100203C0100204001002074
:1030F00044010020480100204C0100205001002024
:10310000540100205801002010B5044623480078DF
:10311000012810D1D4F8A41089694FF4B47201FBCE
:1031200002F0C11700EB9151891200EE101AB8EEAF
:10313000C00A84ED8D0A606890ED000AF1EE000A85
:1031400020EE200A80ED0A0A606890ED010AF1EE97
:10315000000A20EE200A80ED0B0A6068D0ED0A0A12
:10316000B0EE600A9FED0E1ADFED0E0A02F042FB90
:10317000606880ED0A0A6068D0ED0B0AB0EE600A64
:10318000BAEE0E1AF2EE0E0A02F034FB606880ED21
:103190000B0A204600F02EF810BD0000D5000020DC
:1031A0000080BBC300007A4310B504460D48007888
:1031B000012808D1204600F083F902200A4908704E
:1031C00001200A4908700748007838B92046FFF7FF
:1031D0009BFF00200449087004490870012004493D
:1031E000087010BDD5000020E5000020D4000020AC
:1031F000E40000201CB5044642F6F821606890ED1A
:103200000B0ABDEEC00A10EE100A00B2CDE90001B3
:10321000D4F8540AB0F90230002204F6183104F64A
:10322000783000F096FDA4F8E60B4FF4FA5194EDD7
:103230008D0AB1EE400A6068D0ED0A0A30EE600AED
:10324000BDEEC00A10EE100A00B2CDE90001D4F8BC
:10325000A400B0F9023094ED8D0AB1EE400ABDEE43
:10326000C00A10EE100A02B204F5B47104F5E4705D
:1032700002F0D8FBA4F8520AFFF7EEFE1CBD0022B4
:1032800080F8D82B80F8302280F89C20012180F82B
:10329000591C0321017470477CB504460E4615463F
:1032A000D4F8540A0069012101FB106000EE900A75
:1032B000F8EEE00AB0EE600A9FED341ADFED340A52
:1032C00002F071FB334880ED000AB4F9520A00EEB7
:1032D000900AF8EEE00AB0EE600A372104F51270A9
:1032E00001F0C4F9BDEEC00A10EE100A01B2A4F854
:1032F000521AB4F9520A00EE900AF8EEE00AB0EE63
:10330000600A04F50E7002F03BFABDEEC00A10EE42
:10331000100A01B2A4F8521A00EE105AB8EEC00A10
:103320001D4880ED000A90ED000A1C4880ED000A5F
:103330004FF4FA50CDE90050D4F8A400B0F90230AF
:10334000808A02B204F1A80104F5847002F06AFBDD
:10335000A4F8520A42F6F8210E4890ED000ABDEE9C
:10336000C00A10EE100A00B2CDE90001D4F8540AE8
:10337000B0F90230002204F6582104F6B82000F01B
:10338000E8FCA4F8E60BFFF767FE7CBD00003443C1
:10339000000034C3240100202C010020280100205B
:1033A00010B504462068C07A012845D1207C20B998
:1033B00001F006F8204600F065F9207C022803D1D0
:1033C0000120207400F0FCFF2068807A022800D1E0
:1033D00020742068807A032801D107202074206897
:1033E000807A012828D105202074606890ED000AB9
:1033F000B5EEC00AF1EE10FA0DD1606890ED010A49
:10340000B5EEC00AF1EE10FA05D12A480088401C3A
:103410002849088004E000202649088026490870D1
:1034200024480088B0F5C87F06DB4FF4C8702149F6
:1034300008800120204908702068C07A032822D122
:10344000207C20B900F0BCFF204600F01BF9207C56
:10345000022803D10120207400F0B2FF0420207460
:103460002068807A022801D1144908702068807A87
:10347000032802D10020114908702068807A0128B1
:1034800001D10E4908702068C07A022809D120466F
:1034900000F0F8F800F094FF02202074002084F877
:1034A000590C2068C07A20B9002084F8590C00F02B
:1034B00087FF10BDDA000020D5000020E4000020C6
:1034C00010B504462B480068012808D12A4890ED21
:1034D000000ADFED2A0A30EE600A80ED000A254876
:1034E000006840B9244890ED000ADFED240A30EE70
:1034F000200A80ED000AD4F8A4004069322803DBDA
:1035000001201F49086008E0D4F8A400406910F1C8
:103510000F0F02DC00201A4908601948006840B902
:10352000184890ED000ADFED150A30EE200A80ED14
:10353000000A13480068012808D1124890ED000ADB
:10354000DFED0E0A30EE600A80ED000A0D4890EDC6
:10355000000ABDEEC00A10EE100A02B2064890ED55
:10356000000ABDEEC00A10EE100A01B22046FFF7B5
:1035700093FE10BDE8000020F0000020CDCC4C3EB2
:10358000EC000020F400002010B504462068B0F9DB
:10359000040000EE100AB8EEC00ADFED310A60EE5A
:1035A000200A304890ED000A9FED2F1A00EE810AA4
:1035B00080ED000A9FED2D1ADFED2D0A90ED000A37
:1035C00002F0F1F9274880ED000A2068B0F9060002
:1035D00000EE100AB8EEC00ADFED210A60EE200A04
:1035E000244890ED000A9FED241A00EE810A80ED38
:1035F000000ABAEE0E1ADFED210A90ED000A02F081
:10360000F9F81C4880ED000A2068B0F90800B0F510
:10361000FA7F03DB00201A4908700CE02068B0F93B
:10362000080010F5FA7F03DC03201549087002E05A
:103630000220134908700F4890ED000ABDEEC00A41
:1036400010EE100A02B2074890ED000ABDEEC00A63
:1036500010EE100A01B22046FFF71EFE10BD00005A
:10366000C3642A3BDC000020CDCC4C3E0000344338
:10367000000034C3E0000020EC51B83D0000484297
:10368000E50000200022A0F8522AA0F8E62BA0F8BE
:10369000A2209FED0C0A416881ED0A0A9FED090AFC
:1036A000416881ED0B0A0221074A11709FED050A5E
:1036B000064981ED000A9FED030A054981ED000AE4
:1036C0007047000000000000E4000020E00000203F
:1036D000DC0000202DE9F041044600F09DFA02F0E4
:1036E000EBF8C5B20949D1F8A410486900F0AAFE68
:1036F000064602F0D7F807462A46314600F0DAFAC5
:10370000204600F015F9BDE8F081000004390120E1
:1037100010B504462046FFF743FE207C012802D165
:103720002046FFF7ACFD207C10B1207C022804D19C
:1037300000F046FE2046FFF7A5FF207C042802D1BA
:103740002046FFF721FF207C072807D12046FFF7FE
:103750002BFD02200849087008490870207C0628C3
:1037600002D12046FFF7ACFE207C052802D120467E
:10377000FFF71AFD10BD0000E4000020E500002066
:1037800010B50446FFF760FC2060FFF761FCC4F849
:10379000540AFFF755FCC4F8A400FFF719FC606059
:1037A00002F086F8E06000F03DFD9FED550A04F55B
:1037B0000E7002F007F804F5127000F09FFF9FED05
:1037C000512ADFED511A9FED511AF7EE080A9FEDCD
:1037D000500A04F1A80002F059F99FED4E0A84ED59
:1037E000340A9FED4D0A84ED350AB2EE040A84EDE9
:1037F000310AB7EE000A84ED330AB2EE000A84ED16
:10380000320A9FED402ADFED3F1AB1EE081ADFEDD4
:103810003D0AB2EE050A04F5847002F037F99FED17
:10382000392ADFED391AB2EE021ADFED3C0A9FEDBC
:103830003C0A04F5B47002F029F99FED360A84EDD4
:10384000640A9FED380A84ED650AB1EE0C0A84ED36
:10385000610AB2EE040A84ED630AB3EE0E0A84ED47
:10386000620A9FED282ADFED271A9FED261ADFED69
:10387000250AB2EE040A04F5E47002F007F99FEDA0
:10388000212ADFED201A9FED281ADFED1E0A9FED99
:10389000270A04F6582002F0F9F89FED1A2ADFED06
:1038A000191A9FED181ADFED170AB2EE020A04F694
:1038B000B82002F0EBF89FED132ADFED121AB2EEFA
:1038C0000E1ADFED100A9FED180A04F6183002F008
:1038D000DDF89FED0C2ADFED0B1AB7EE001ADFEDD5
:1038E000090AB2EE0E0A04F6783002F0CFF8002092
:1038F00084F8590C20742046FFF7C4FE10BD000068
:103900000F0BB53D000000000000FA440000964295
:103910000000704200003443000048C3CDCCCC3DD1
:103920000000104200007AC30000C84200000243B9
:1039300010B504462046FFF7EBFE10BD00BFFEE7C2
:103940004CF6CC4001490860704700000030004050
:1039500010B500F013F810BD70B505460C4645F2E1
:10396000555000F01FF8284600F010F8204600F0EF
:1039700013F800F003F8FFF7E3FF70BD4AF6AA2042
:10398000014908607047000000300040014948606C
:103990007047000000300040014988607047000017
:1039A00000300040014908607047000000300040CE
:1039B0001CB50121102000F0CBFA0121022000F0FB
:1039C000C7FA0420009001208DF8040000208DF833
:1039D000060003208DF8050001208DF807006946D8
:1039E0003A48FFF785FA0820009001208DF804007E
:1039F00000208DF8060003208DF8050001208DF8C9
:103A0000070069463148FFF773FA10200090012043
:103A10008DF8040000208DF8060003208DF80500C5
:103A200001208DF8070069462848FFF761FA012058
:103A300000908DF8040000208DF8060003208DF81A
:103A4000050001208DF8070069462048FFF750FA6D
:103A50000220009001208DF8040000208DF806005F
:103A600003208DF8050001208DF8070069461748EE
:103A7000FFF73EFA8020009001208DF8040000201E
:103A80008DF8060003208DF8050001208DF8070051
:103A900069460F48FFF72CFA04210C48FFF795FA06
:103AA00008210A48FFF791FA10210848FFF78DFA1C
:103AB00001210648FFF789FA02210448FFF785FA39
:103AC00080210348FFF781FA1CBD0000001002406E
:103AD000000402401CB50121084600F039FA4FF4F9
:103AE0008050009001208DF8040000208DF8060021
:103AF00003208DF8050001208DF807006946024873
:103B0000FFF7F6F91CBD00000000024010B54FF4AD
:103B100080510248FFF757FA10BD00000000024034
:103B200010B54FF480510248FFF74FFA10BD000066
:103B30000000024010B52DED028B0446B0EE408A25
:103B400094ED050A30EE480A84ED150A94ED110A49
:103B5000D4ED150A30EE200A84ED110A94ED110A15
:103B6000BDEEC00A10EE100A294A514201F013FFBF
:103B700000EE100AB8EEC00A84ED110A94ED130AA3
:103B800084ED140A94ED120A84ED130A94ED150ADB
:103B9000D4ED160A30EE600A84ED120A94ED000AA4
:103BA000D4ED150A20EE200AD4ED010A94ED111A85
:103BB00000EE810AD4ED020A94ED121A00EE810A99
:103BC00084ED0C0A94ED000AD4ED150A20EE200ACB
:103BD00084ED0E0A94ED010AD4ED110A20EE200ABC
:103BE00084ED0F0A94ED020AD4ED120A20EE200AA9
:103BF00084ED100A94ED150A84ED160A94ED0C0A72
:103C0000BDEEC00A10EE100ABDEC028B10BD000024
:103C1000F0D8FFFF00BFFEE710B52148008800285C
:103C20003DD0002334E01F48C05CFF282ED11D4941
:103C3000D81D085CFE2829D10C465A1CA15C9A1C90
:103C4000A05C01F07BFEDFED180A80EE201A174819
:103C500080ED011ADA1CA15C1A1DA05C01F06EFE59
:103C6000DFED110A80EE201A104880ED001A5A1D6F
:103C7000A15C9A1DA05C01F061FEDFED0B0A80EEF5
:103C8000201A0A4880ED041AD81D83B2581C83B24A
:103C9000074800888342C6DB00200149088010BD28
:103CA000FC000020043801200000C842D437012065
:103CB000FE00002070B504460D461646FF2012494E
:103CC0000870084644708570C670FE200871002098
:103CD0000E49087012E000BF40210D4801F0E0F8E5
:103CE0000028F9D00848094A1278815C084801F098
:103CF0009DF906480078401C044908700348007884
:103D00000528E8DB70BD000000010020050100204F
:103D10000048004070B504460E461546E08920B9BB
:103D2000208800B220810120E08121882289891A1F
:103D300008B22946FDF732FEA1690844A0612A466F
:103D40003146A069FEF799FCA061208800B220816D
:103D500070BD2DE9F0472DED028B07460C46154648
:103D60001E469DED0A8ADDF82C80B8EEC80A84ED67
:103D7000050A00EE105AB8EEC00A2046FFF7DAFE38
:103D800000EE100AB8EEC00A87ED050A00EE106AD0
:103D9000B8EEC00A3846FFF7CDFE8146C8F10002F2
:103DA0004146484601F0F7FD81460FFA89F0BDEC27
:103DB000028BBDE8F087704770B5002100230F2209
:103DC000C4781CB3174C246804F4E064C4F5E064C0
:103DD000C4F30721C1F10404E3B20A4144789C40D2
:103DE000E1B28478144021430C07210E0E4C057873
:103DF0006155047804F01F050124AC4005786D116D
:103E0000AD0005F1E025C5F8004109E0047804F0B3
:103E10001F050124AC40054D0678761145F8264073
:103E200070BD00000CED00E000E400E080E100E087
:103E300002490143024A1160704700000000FA0580
:103E40000CED00E030B58BB004460D460121022098
:103E500000F08EF80121082000F08AF801210846C0
:103E600000F076F8022206213648FFF789F8022290
:103E700007213448FFF784F8022203213148FFF775
:103E80007FF8022211462F48FFF77AF8CC200990DC
:103E900002208DF8280003208DF8290000208DF8DD
:103EA0002A0001208DF82B0009A92648FFF720F8E9
:103EB000ADF8185007940020ADF8200006A922485C
:103EC00000F06AFE06A9214800F066FE6020ADF809
:103ED00004000120ADF806000020ADF8120001A991
:103EE000194800F00DFD0821174800F047FD01A911
:103EF000154800F04DFD0821134800F09BFD01A975
:103F0000124800F0A5FD0821104800F0F1FD01A9BC
:103F10000E4800F0F7FD08210C4800F02FFE0121AB
:103F2000094800F0BDFC0121084800F0B9FC01215E
:103F3000054800F0C7FC0121044800F0C3FC0BB0A9
:103F400030BD00000000024000040040000C0040B2
:103F500029B1064A12680243044B1A6004E0034A7E
:103F600012688243014B1A607047000030380240EB
:103F700029B1064A12680243044B1A6004E0034A5E
:103F800012688243014B1A607047000040380240BB
:103F900029B1064A12680243044B1A6004E0034A3E
:103FA00012688243014B1A607047000020380240BB
:103FB00029B1064A12680243044B1A6004E0034A1E
:103FC00012688243014B1A60704700004438024077
:103FD00029B1064A12680243044B1A6004E0034AFE
:103FE00012688243014B1A60704700002438024077
:103FF000F0B5002100220024022500260223324FC2
:104000003F6807F00C0121B1042905D0082937D1F8
:1040100005E02E4F076036E02D4F076033E02A4F52
:104020003F1F3F68C7F38056274F3F1F3F6807F089
:104030003F036EB1264FB7FBF3F7DFF88CC0ACF14E
:10404000040CDCF800C0CCF3881C07FB0CF40CE07B
:104050001E4FB7FBF3F7DFF870C0ACF1040CDCF8CF
:1040600000C0CCF3881C07FB0CF4174F3F1F3F68C0
:10407000C7F301477F1C7D00B4FBF5F7076002E042
:10408000124F076000BF00BF0F4F3F6807F0F001FD
:104090000909104F7A5C0768D74047600A4F3F68AC
:1040A00007F4E051890A0B4F7A5C4768D740876074
:1040B000054F3F6807F46041490B064F7A5C47683B
:1040C000D740C760F0BD0000083802400024F4006B
:1040D00040787D011400002001B100B970470A78D2
:1040E0004B7842EA0322C2F30A0202804A78D210D5
:1040F0008B7842EA4312C2F30A0242808A78921114
:10410000CB7842EA83020B7942EA8322C2F30A02A5
:1041100082800A7952104B7942EAC312C2F30A0232
:10412000C2804A791211920882724A79C2F301124E
:10413000C2728A79CB7942EA032212B282810A7A68
:104140004B7A42EA032213B200F10C02C3818A7A4D
:10415000CB7A42EA032213B200F10C0203820B7BFA
:1041600083744B7BC3748A7BCB7B42EA03228282BB
:104170000A7C4B7C42EA0322C2F30A0202810288D3
:10418000A2F5806212B202804288A2F5806212B269
:1041900042808288A2F5806212B28280C288A2F533
:1041A000806212B2C2800289A2F5806212B20281DC
:1041B000B0F900200A2A04DCB0F9002012F10A0F3D
:1041C00002DA0288028001E000220280B0F90220B7
:1041D0000A2A04DCB0F9022012F10A0F02DA42883E
:1041E000428001E000224280B0F904200A2A04DC67
:1041F000B0F9042012F10A0F02DA8288828001E00D
:1042000000228280B0F906200A2A04DCB0F90620D8
:1042100012F10A0F02DAC288C28001E00022C280D5
:1042200000BF5BE710B52049B1F9000001F0AEFB1B
:10423000B0F52F7F00DD23E01B49B1F9020001F04A
:10424000A5FBB0F52F7F00DD1AE01749B1F9040096
:1042500001F09CFBB0F52F7F00DD11E01249B1F9B0
:10426000060001F093FBB0F52F7F00DD08E00E485B
:10427000807A00B904E00C48C07A00B900E010BDB3
:1042800000200949088048808880C880088188818A
:1042900000210548C18101828174C1740020024956
:1042A000888200BFEBE70000BE3701202DE9F04116
:1042B00005460C460027B84614B90020BDE8F08139
:1042C0003E4829680160297901712078A52872D1BA
:1042D0000521204601F02CF801285BD1607800F11F
:1042E00009063146204601F003F8012852D1012782
:1042F0006079A17940EA012840F20321A8EB01008E
:10430000884523D008DCB8F5817F0CD0A8F20120C5
:1043100070B101283DD112E003281ED0042820D01E
:10432000052836D12AE0D4F80710C5F8631130E02B
:104330001B22E11D05F5B670FCF733F829E01022C9
:10434000E11D05F28710FCF72CF822E01022E11D98
:1043500005F29710FCF725F81BE0E17985F8AC1120
:1043600017E0D4F807104FF4DA70C5F8AE11B4F8BE
:104370000B10A5F8B211617B41550AE005F5C0703C
:10438000D4F80710C5F8B611B4F80B10A5F8BA1197
:1043900000BF00BF0948B0F80110E01D0844807854
:1043A000A52808D10548B0F80120E01D1044811C63
:1043B0002846FFF77BFF384680E70000C200002058
:1043C00000200849088048808880C880088188814A
:1043D00000210448C18101828174C1740020014917
:1043E00088827047BE3701200A48007808B900204B
:1043F000704708480078012800D1F9E7054800789F
:10440000022800D1F4E703480078032800D1EFE741
:104410000420EDE7E50000200848007808B90020F6
:10442000704706480078012800D1F9E70348007872
:10443000022800D1F4E70320F2E70000E4000020A6
:104440000120704701463131C1F15A01C8B27047AD
:104450000148C07A70470000BE3701202DE9F041C5
:1044600004460D4616461F4600EE105AB8EEC00A26
:1044700084ED050A00EE106AB8EEC00A84ED060A63
:10448000D4ED060AB0EE600A2046FFF753FB8046E3
:104490007A423946404601F07EFA80460FFA88F0AB
:1044A000BDE8F08106E00448006804490860142073
:1044B00002F0CEFDF7E700007401002090024242B6
:1044C0001CB5044602F0AAFC174801210023C822AB
:1044D000CDE9001015A1184803F054FB1748052139
:1044E00000233222CDE9001015A1184803F04AFB41
:1044F0001748032100233222CDE9001015A11848E6
:1045000003F040FB1748022100235022CDE90010A0
:1045100015A1194803F036FB1848006802F0C6FDE3
:1045200002F0A6FC1CBD00000801002047494D42D6
:10453000414C5F5461736B00652E00081001002030
:104540004445544543545F5461736B00A9260008E9
:104550000C010020464952455F5461736B00000016
:10456000992A000814010020534146454348454319
:104570004B5F5461736B0000A544000818010020D4
:104580000CB50020019000903448006840F4803061
:104590003249086000BF3148006800F400300090E4
:1045A0000198401C0190009818B90198B0F5A04FEF
:1045B000F1D12A48006800F4003010B101200090C9
:1045C00001E0002000900098012846D123484030A7
:1045D000006840F080502149403108602048006860
:1045E00040F440401E4908601C48083000681B49E0
:1045F000083108600846006840F40040086008463A
:10460000006840F4A05008601648091F0860081FA1
:10461000006840F08070091F086000BF0F48006804
:1046200000F000700028F9D040F205700E490860D3
:104630000A480830006820F0030008490831086083
:104640000846006840F00200086000BF03480830D8
:10465000006800F00C000828F8D10CBD00380240BA
:104660000070004019544007003C024010B5F0EEC5
:10467000400A10EE902A02600268446800F11003BC
:1046800003EB84031A604268521C426042688A420B
:1046900004D1002242600122C0F8F823D0F8F823A8
:1046A000012A13D100220FE0C36800EE103A00F196
:1046B000100303EB82031B6801EE103A30EE010A8F
:1046C00010EE103AC360521C8A42EDDBC26801EE64
:1046D000102A00EE101AF8EEC01A81EE210A10EE30
:1046E000102A82609FED040A10EE102AC2608268D0
:1046F00000EE102A10BD0000000000000021416003
:1047000000BF09E09FED0F0A10EE102A00F1100320
:1047100003EB81031A60491C1429F3DB9FED090A9E
:1047200010EE101A01609FED070A10EE101A81605A
:104730009FED040A10EE101AC1600021C0F8F813B2
:1047400070470000000000001CB50548012100234F
:104750003222CDE9001003A1054803F013FA1CBD75
:104760001801002053544152545F5461736B000090
:10477000C144000810B503F035FA012801D002F059
:10478000F7FE10BD10B51548006840F470001349DD
:1047900008601348006840F00100114908600020DB
:1047A0000F49083108600E4800680E4908400C495E
:1047B00008600D48091D0860081F006820F480206B
:1047C000091F0860002006490C310860FFF7D8FE79
:1047D0004FF0006001498039086010BD88ED00E0AD
:1047E00000380240FFFFF6FE1030002408B56420B8
:1047F00000F032FF4FF44070FFF71AFBFFF76AF941
:1048000002F002F900F024FF02F0A8F9FFF7D0F857
:1048100000F0BEFD00F0A4FD0020032304220721C8
:104820000090FDF7B5F90020032304220721009032
:10483000FDF7C0FAFEF706FB4FF4A0710420FFF766
:104840008BF8642000F008FF08BD10B5012188072F
:1048500000F044F80121880700F031F810BD000095
:1048600010B501210C4800F039F898B101210A482F
:1048700000F025F80121084800F01EF807480088DC
:10488000401C00B205490880084600880A2801D16A
:104890000020088010BD0000001000409C00002097
:1048A00021B1028842F08002028004E002884FF6C3
:1048B0007F731A4002807047CA4302827047CA431E
:1048C0000282704721B1028842F00102028004E0B6
:1048D00002884FF6FE731A400280704730B50246D8
:1048E000002000230024158A05EA0103958905EAC2
:1048F000010413B10CB1012000E0002030BD000024
:1049000070B5002400220023058C4FF6FE7635405A
:104910000584028C8388048B4FF68F752C40B51E5E
:104920002C400D882C43751E2A408D892A434D88C2
:104930002A43104DA84202D00F4DA84213D14FF682
:10494000F7752A40CD892A434FF6FB752A408D889A
:104950002A434FF6FF652B404FF6FF552B400D8A3B
:104960002B434D8A2B43838004838D6845630284E7
:1049700070BD000000000140000401400A46002113
:10498000018B4FF6F7731940114301837047000004
:1049900070B5002400220023058C4FF6EF763540D9
:1049A0000584028C8388048B48F6FF752C404FF6F3
:1049B000FF452C400D884FF6FF7606EA05252C436F
:1049C0004FF6DF752A408D8906EA05152A434D8882
:1049D00006EA05152A43154DA84202D0144DA842F7
:1049E0001DD14FF67F752A40CD894FF6FF7606EA36
:1049F00005152A434FF6BF752A408D8806EA05152E
:104A00002A434FF6FF352B404FF2FF752B400D8A9E
:104A100006EA85052B434D8A06EA85052B438380EC
:104A200004838D688563028470BD0000000001402E
:104A3000000401400A460021018B4FF2FF73194028
:104A40004FF6FF7303EA0223194301837047000006
:104A500070B5002400220023058C4FF6FF66354018
:104A60000584028C8388848B4FF68F752C404FF61B
:104A7000FC752C400D882C434FF6FF552A408D893C
:104A80004FF6FF7606EA05252A434D8806EA0525F6
:104A90002A43154DA84202D0144DA8421DD14FF211
:104AA000FF752A40CD894FF6FF7606EA05252A4391
:104AB0004FF6FF352A408D8806EA05252A434EF633
:104AC000FF752B404DF6FF752B400D8A06EA051544
:104AD0002B434D8A06EA05152B43838084838D681A
:104AE000C563028470BD0000000001400004014065
:104AF0000A460021818B4FF6F773194011438183D9
:104B00007047000070B5002200230024058C4EF68B
:104B1000FF7635400584038C8488828B48F6FF75C8
:104B20002A404FF6FF452A400D884FF6FF7606EAE9
:104B300005252A434DF6FF752B408D8906EA05357C
:104B40002B434D8806EA05352B430A4DA84202D077
:104B5000094DA84208D14BF6FF752C400D8A4FF63F
:104B6000FF7606EA85152C43848082838D68056470
:104B7000038470BD00000140000401400A4600218A
:104B8000818B4FF2FF7319404FF6FF7303EA022344
:104B9000194381837047000000220288184B984215
:104BA0000ED0184B98420BD0B0F1804F08D0164B66
:104BB000984205D0154B984202D0154B984204D12B
:104BC0004FF68F731A404B881A43124B984207D006
:104BD000114B984204D04FF6FF431A400B891A43F9
:104BE00002804B68C3620B880385054B984202D054
:104BF000044B984201D18B7A03860123838270474C
:104C00000000014000040140000400400008004092
:104C1000000C0040001000400014004010B540F2AD
:104C200024410C4800F049F990B10A4800880A492B
:104C300008600848001D008808600848FDF7B8FEB5
:104C4000054908600846006881B2054801F08CFFFC
:104C500010BD000000440040BC00002088600240FD
:104C6000E032012070B5002540F22441194800F0DF
:104C700024F968B300211848FDF7D8FD00BF164895
:104C8000FDF78CFE0028FAD112480088C5B2114801
:104C9000001D0088C5B21048FDF78AFE4042C5B22B
:104CA0000E480580002405E00D48005D0D490855BB
:104CB000601C84B2AC42F7DB4FF480710648FDF70C
:104CC000E7FE01210448FDF7B1FD012006490880F7
:104CD00070BD00000048004028600240FE00002037
:104CE000B02E012004380120FC00002070B5002403
:104CF000002540F224411F4800F0DFF8002837D09B
:104D000000211D48FDF792FD00BF1B48FDF746FE40
:104D10000028FAD117480588001D05881648FDF7B8
:104D200047FEC0F5807085B228B21449A1F82D0164
:104D3000002405E01248005D10490855601C84B24B
:104D4000AC42F7DB0E490D48FFF7B0FA4FF4807123
:104D50000B48FBF7A5FB4FF480710748FDF798FE61
:104D600001210548FDF762FD0120044981F8330166
:104D700070BD00000014014028640240F43401209A
:104D8000B030012021B1828942F40052828104E0D6
:104D900082894DF6FF731A40828170471AB1838A67
:104DA0000B43838202E0838A8B4383827047000037
:104DB00010B504463248844208D101211020FFF783
:104DC00007F900211020FFF703F957E02D4884422E
:104DD00009D101214804FFF7DBF800214FF400302E
:104DE000FFF7D6F84AE02848844209D10121880417
:104DF000FFF7CEF800214FF48020FFF7C9F83DE01F
:104E00002248844209D10121C804FFF7C1F80021DA
:104E10004FF40020FFF7BCF830E01D48844209D170
:104E200001210805FFF7B4F800214FF48010FFF7C7
:104E3000AFF823E01748844208D101212020FFF772
:104E4000C7F800212020FFF7C3F817E0124884427A
:104E500009D101218807FFF79BF800214FF080401E
:104E6000FFF796F80AE00D48844207D1012140057A
:104E7000FFF78EF800216005FFF78AF810BD0000EB
:104E8000001001400044004000480040004C004039
:104E9000005000400014014000780040007C0040B9
:104EA00002460020B1F5007F00D100BF13880B40FF
:104EB0000BB1012000E00020704770B502460024CD
:104EC00000230025002040F66A16B14200D100BF41
:104ED000C1F3421501F01F03012606FA03F3012D69
:104EE00002D19689334006E0022D02D1168A334062
:104EF00001E0968A33400C12012606FA04F4168863
:104F0000344013B10CB1012000E0002070BDF0B5B9
:104F10000346002400260025002040F66A17B94207
:104F200000D100BF1846C1F3421401F01F0601274B
:104F300007FA06F5012C01D10C3004E0022C01D156
:104F4000103000E014301AB107682F43076002E008
:104F50000768AF430760F0BD2DE9FF4705460E46E1
:104F60000024A14600BFA046B08900B100BF2C8A32
:104F700024F44054F08804432C82AC8941F20C6044
:104F80008443B08831890843718908430443AC8164
:104F9000AC8A24F44074B0890443AC826846FFF7BD
:104FA00027F82048854202D01F48854202D1DDF80B
:104FB0000C9001E0DDF80890A88900F4004040B1B1
:104FC00009EBC90000EB091031684900B0FBF1F7AB
:104FD00007E009EBC90000EB091031688900B0FB5C
:104FE000F1F76420B7FBF0F004012009642101FB14
:104FF0001078A88900F4004040B1322000EBC800CE
:10500000B0FBF1F000F00700044308E0322000EBB1
:1050100008106421B0FBF1F000F00F0004432C8174
:10502000BDE8FF870010014000140140C1F30802F1
:105030008280704700BFFEE730B597B005460C464A
:1050400001214348FEF784FF01211020FEF7B0FF45
:1050500007220A213F48FDF793FF4FF48060159027
:1050600002208DF8580000208DF85A0003208DF89A
:10507000590000208DF85B0015A93648FDF738FF70
:105080003548FFF795FE354811900020ADF84800EF
:10509000ADF84A004FF48060ADF84C000420ADF844
:1050A0004E000020ADF8500011A92B48FFF754FF27
:1050B00001212948FFF766FE012240212648FFF71B
:1050C0006DFE44208DF8040000208DF805008DF859
:1050D000060001208DF8070001A8FEF76DFE0021F3
:1050E0001F48FDF7A3FB00BF1D48006800F001004A
:1050F0000028F9D11A48FDF7A5FB4FF00060029097
:105100001548001D03900495002005900694079013
:105110004FF480600890002009900A904FF480704E
:105120000B904FF440300C9000200D900E900F909B
:10513000109002A90A48FDF77FFC012210210848BF
:10514000FDF75CFC01210648FDF770FB17B030BD90
:10515000010040000000024000100140A086010054
:105160008864024000B58FB001215B48FEF7F0FE75
:1051700001218804FEF7FCFE072208215748FDF7AD
:10518000FFFE072209215548FDF7FAFE4FF4407053
:105190000D9002208DF8380000208DF83A00022092
:1051A0008DF8390001208DF83B000DA94B48FDF723
:1051B0009FFE4B48FFF7FCFD4FF4E13008900020C4
:1051C000ADF82400ADF82600ADF828000C20ADF8AD
:1051D0002A000020ADF82C0008A94148FFF7BCFECA
:1051E00027208DF8300001208DF833008DF8310034
:1051F0008DF832000CA8FEF7DFFD012240F22441B9
:105200003748FFF784FE01213548FFF7BBFD3548DD
:10521000FDF718FB4FF0006000903148001D019031
:1052200031480290402003908000049000200590B7
:105230004FF4806006900020079008904FF4807033
:1052400009904FF440300A9000200B900C900D9084
:105250000E9069462348FDF7EFFB00212148FDF73A
:10526000E5FA012280211E48FFF798FD1D483038DD
:10527000FDF7E8FA4FF0006000901948001D01901A
:105280001A480290002003904FF480700490002090
:1052900005904FF4806006900020079008904FF42E
:1052A000807009904FF440300A9000200B900C90D1
:1052B0000D900E9069460B483038FDF7BDFB01217B
:1052C00008483038FDF7B2FA012240210448FFF7C0
:1052D00065FD0FB000BD000008002000000C02407A
:1052E0000048004058600240B02F0120B02E01203D
:1052F00070B505460C4600260DB1022C01D80020E1
:1053000070BDA11E094802882846FDF765FE0646C5
:10531000F1B2A01E285C814206D1601E285CB0EB71
:10532000162F01D10120EBE70020E9E7C0000020A3
:1053300070B505460C4600260DB1022C01D80020A0
:1053400070BD611EFF222846FDF760FE0646601E06
:10535000285CB04201D10120F2E70020F0E7000014
:105360001CB501210820FEF7F3FD4FF4805000909A
:1053700003208DF8050000208DF804008DF807004B
:1053800069460248FDF7B4FD1CBD0000000C024058
:105390001CB501210846FEF7DBFD08200090032024
:1053A0008DF8050000208DF804008DF8070069468F
:1053B0000148FDF79DFD1CBD0000024000000000FB
:1053C00030B52DED048B81B0B0EE408AF0EE608AEE
:1053D0006A4651EC180B00F01FFA00989FED329BC3
:1053E0007E300090002821DC53EC192B51EC180B77
:1053F00003F0C4F81AD0002140F608004FF0000076
:10540000044651EC180B02F073FE08EE100A40F649
:10541000080004EA00014FF00000B5EEC08AF1EE8A
:1054200010FA04BF0220FBF7B8F82DE00098FF281F
:1054300030DB002108464FF0000000F4400553EC3B
:10544000192B51EC180B03F055FA8CBF00240124E2
:105450000220FBF7A2F89FED168A4DB1002C0CBF7D
:105460004FF400004FF48000A84218BF9FED118A4E
:10547000042108464FF00000002C01BFB1EE480A9D
:1054800001B0BDEC048B30BDB0EE480A01B0BDECFC
:10549000048B30BD51EC180B02F02AFE01B000EE77
:1054A000100ABDEC048B30BD0000000000000000BD
:1054B0000000807FFFFF7F7F30B583B00446FBF79D
:1054C00067F89FED090B05468DED000B0022214684
:1054D0006846FBF787F82846FBF75FF89DED000B61
:1054E00003B030BD0000000000000000000000001C
:1054F0002DED020B019820F0004001909DED000B76
:1055000002B070470000000030B540F2FF742DED8E
:10551000048BF0EE608A18EE901A85B0B0EE408AE7
:105520009FED2B9B05468DED008B34EA115147D042
:1055300053EC192B51EC180B03F020F840D02A46FD
:1055400051EC180B03F0A6FB41EC180B18EE900A77
:105550008DED008B34EA10501CD053EC192B51EC1C
:10556000180B03F00BF82BD10220FBF716F800F014
:1055700043F810EE901A18EE900A8DED020B8DEDA7
:10558000008B61F31E0003909DED020B05B0BDEC96
:10559000048B30BD0220FBF700F800F01DF810EE80
:1055A000901A18EE900A8DED020B8DED008B61F3D1
:1055B0001E0003909DED020B05B0BDEC048B30BDC9
:1055C00005B0B0EE480AF0EE680ABDEC048B30BDC1
:1055D00000000000000000009FED050B10B553EC2B
:1055E000102B51EC100B03F087F841EC100B10BDA1
:1055F00000000000000000709FED050B10B553EC9B
:10560000102B51EC100B03F077F841EC100B10BD90
:10561000000000000000001010B5044691ED000BE2
:10562000FFF7CEFE84ED000A10BD10B5044690EDE4
:10563000000B0846FFF768FF84ED000B10BD303803
:105640000A2801D2012070470020704700BF704730
:1056500010B5FFF787FD10BD10B503464FF47A7003
:1056600003FB00F4204600F001F810BD002100BF4C
:1056700048E000BF00BF00BF00BF00BF00BF00BFC9
:1056800000BF00BF00BF00BF00BF00BF00BF00BF22
:1056900000BF00BF00BF00BF00BF00BF00BF00BF12
:1056A00000BF00BF00BF00BF00BF00BF00BF00BF02
:1056B00000BF00BF00BF00BF00BF00BF00BF00BFF2
:1056C00000BF00BF00BF00BF00BF00BF00BF00BFE2
:1056D00000BF00BF00BF00BF00BF00BF00BF00BFD2
:1056E00000BF00BF00BF00BF00BF00BF00BF00BFC2
:1056F00000BF00BF00BF00BF00BF00BF00BF00BFB2
:1057000000BF491C8142B4D37047034612B1501EFA
:10571000104010B14FF0FF30704700205860986083
:1057200019609A811A8200BFF6E72DE9F04104461C
:105730000E461546D4E90102811A284600F06BF99D
:105740000546A289521EA0681040A289111A284657
:1057500000F061F90746A289521EA0681040226835
:1057600081183A463046FAF71CFEEA1BF019216808
:10577000FAF717FEA0682844A0602846BDE8F0812B
:10578000F0EE400A10EE901A0160016800EE101A67
:10579000C16801EE101A20EE010A01EE101AF7EEB0
:1057A000001A71EEC11A416801EE101A01EE810A69
:1057B00010EE101A816081684160816800EE101A55
:1057C0007047000000B97047DFED090A10EE901A2B
:1057D0000160DFED070A10EE901A416010EE101A1A
:1057E000C160DFED030A10EE901A816000BFEAE7A6
:1057F00000000000B4EEE00AF1EE10FA02DDB0EEB7
:10580000600A06E0B4EEC10AF1EE10FA01D2B0EE81
:10581000410A70470000000010B582B01446CDE97F
:1058200000010023009A2360194B21F000409842A8
:105830002ADA024328D0B0F5801FA8BF226810DA08
:105840009FED150B53EC102B9DED000B51EC100B45
:1058500002F052FFCDE900016FF0350221F0004067
:1058600022600F4B6FF31E5103EB20501044206059
:1058700041F0FF5040F0005001909DED000B00BF43
:1058800002B051EC100B10BD9DED000BF8E70000CD
:105890000000F07F00000000000000000000504306
:1058A00002FCFFFF0148007870470000C80000209C
:1058B00000487047604501200148B0F9000070477A
:1058C000CA0000200148008870470000CE00002078
:1058D0000148008870470000CC00002010B500236C
:1058E000124A19461846FCF76DF8022001F0B0FB89
:1058F0000F48D0F8A400B0F90200642811DA0D486E
:105900000088401C0B49088008460088FA280BDDF7
:1059100000200749D1F8A4108861012006490880B9
:1059200002E000200349088010BD000060F0FFFF86
:10593000043901205C0100203001002000F07F02CA
:1059400000EE102AB8EEC00AF0EE400A00EE101A7F
:10595000B8EE400AB0EE401A00F0800252B1DFED1E
:10596000091AB0EE410A00EEA10ADFED071A30EE87
:10597000610A7047B0EE410ADFED021A00EEA10A9B
:10598000F7E700000000804300000047002801DA2C
:10599000414208B27047884201DD084602E0904269
:1059A00000DA10467047B4EEE01AF1EE10FA00D2B9
:1059B0007047B4EEC10AF1EE10FA0EDD31EE602A46
:1059C000F0EE421A03E030EE612AB0EE420AB4EE85
:1059D000C10AF1EE10FAF6DC13E0B4EEE00AF1EEE3
:1059E00010FA0ED231EE602AF0EE421A03E030EEE9
:1059F000212AB0EE420AB4EEE00AF1EE10FAF6D334
:105A000000BF00BFD4E7FEF7F1FEFEF79DFE01F0F8
:105A100079FC00BFFEE702468A4201D9084670477A
:105A20001046FCE72DE9F0472DED028B06460F46A8
:105A300014461D469DED0A8ADDF82C80B8EEC80A92
:105A4000384601F02BF800EE104AB8EEC00A38468E
:105A500000F0B8F900EE100AB8EEC00A86ED050AAB
:105A600000EE105AB8EEC00A3046FEF763F88146E1
:105A7000C8F1000241464846FFF78DFF81460FFA04
:105A800089F0BDEC028BBDE8F087000000B97047DB
:105A900080ED000AC0ED010A80ED021ADFED172A41
:105AA000C0ED052ADFED152AC0ED062ADFED132A29
:105AB000C0ED0C2ADFED112AC0ED0D2ADFED0F2A13
:105AC000C0ED112ADFED0D2AC0ED142AC0ED132A16
:105AD000C0ED122ADFED092AC0ED152AC0ED152A06
