:020000040800F2
:10000000F83F01202103000849210008C91D00080C
:10001000C520000899060008492D000800000000CE
:10002000000000000000000000000000690200085D
:10003000171B000800000000BD020008512800083E
:100040003B0300083B0300083B0300083B03000898
:100050003B0300083B0300083B0300083B03000888
:100060003B0300083B0300083B0300083B03000878
:100070003B0300083B0300083B0300083B03000868
:100080003B0300083B0300083B0300083B03000858
:100090009D0600083B0300083B0300083B030008E3
:1000A0003B0300083B0300083B0300083B03000838
:1000B000252900083B0300083B0300083B03000818
:1000C0003B0300083B0300083B0300083B03000818
:1000D0003B0300083B0300089D2900083B03000880
:1000E0003B0300083B0300083B0300083B030008F8
:1000F0003B0300083B0300083B0300083B030008E8
:100100003B0300083B0300083B0300083B030008D7
:100110003B0300083B0300083D2900083B0300089F
:100120003B0300083B0300083B0300083B030008B7
:100130003B0300083B0300083B0300083B030008A7
:10014000090900083B0300083B0300083B030008C3
:10015000AD170008F11700083B030008212A00082A
:100160003B0300083B0300083B0300083B03000877
:100170003B0300083B0300083B0300083B03000867
:100180003B0300083B03000800F002F800F05CF8B5
:100190000AA090E8000C82448344AAF10107DA45E2
:1001A00001D100F051F8AFF2090EBAE80F0013F0D8
:1001B000010F18BFFB1A43F0010318470853000052
:1001C000285300000A444FF0000C10F8013B13F0D4
:1001D000070408BF10F8014B1D1108BF10F8015BA0
:1001E000641E05D010F8016B641E01F8016BF9D193
:1001F00013F0080F1EBF10F8014BAD1C0C1B09D1EA
:100200006D1E58BF01F801CBFAD505E014F8016B5B
:1002100001F8016B6D1EF9D59142D6D370470000ED
:100220000023002400250026103A28BF78C1FBD8FF
:10023000520728BF30C148BF0B6070471FB504F09C
:10024000BBFF1FBD10B510BD00F05BF91146FFF7F5
:10025000F5FF03F0A2F900F079F903B4FFF7F2FF1C
:1002600003BC00F07DF900002A4B19680868B0E86B
:10027000F04F80F30988BFF36F8F4FF0000080F3D9
:10028000118870470000000006480068006880F38D
:10029000088862B661B6BFF34F8FBFF36F8F00DF80
:1002A00000BF00BF08ED00E0DFF80C00016841F47A
:1002B00070010160704700BF88ED00E0EFF3098036
:1002C000BFF36F8F134B1A681EF0100F08BF20ED9D
:1002D000108A20E9F04F106008B44FF0200080F33E
:1002E0001188BFF34F8FBFF36F8F04F041FA4FF0C7
:1002F000000080F3118808BC19680868B0E8F04F66
:100300001EF0100F08BFB0EC108A80F30988BFF30D
:100310006F8F704724000020EFF3058070470000C6
:100320000948804709480047FEE7FEE7FEE7FEE789
:10033000FEE7FEE7FEE7FEE7FEE7FEE704480549C5
:10034000054A064B7047000065280008890100082F
:10035000F8390120F83F0120F83B0120F83B01204B
:10036000032A40F2308010F0030C00F0158011F8E1
:10037000013BBCF1020F624498BF11F801CB00F8B9
:10038000013B38BF11F8013BA2F1040298BF00F80D
:1003900001CB38BF00F8013B11F0030300F0578098
:1003A000083AC0F0088051F8043B083A51F804CBF1
:1003B000A0E80810F5E7121D5CBF51F8043B40F8B7
:1003C000043BAFF30080D20724BF11F8013B11F8C2
:1003D00001CB48BF11F8012B24BF00F8013B00F806
:1003E00001CB48BF00F8012B704702F0FF0343EA3E
:1003F000032242EA024200F05EB84FF0000200B56C
:10040000134694469646203922BFA0E80C50A0E837
:100410000C50B1F12001BFF4F7AF090728BFA0E8E5
:100420000C5048BF0CC05DF804EB890028BF40F8B1
:10043000042B08BF704748BF20F8022B11F0804FF3
:1004400018BF00F8012B704770477047704710B510
:10045000203AC0F00B80B1E81850203AA0E81850BC
:10046000B1E81850A0E81850BFF4F5AF5FEA027C7D
:1004700024BFB1E81850A0E8185044BF18C918C0EC
:10048000BDE810405FEA827C24BF51F8043B40F88D
:10049000043B08BF7047D20728BF31F8023B48BF72
:1004A00011F8012B28BF20F8023B48BF00F8012BB0
:1004B00070474FF000020429C0F0128010F0030CC6
:1004C0003FF49DAFCCF1040CBCF1020F18BF00F853
:1004D000012BA8BF20F8022BA1EB0C01FFF78FBF67
:1004E0005FEAC17C24BF00F8012B00F8012B48BF54
:1004F00000F8012B70470000004870479439012034
:1005000070477546FFF7F8FFAE460500694653464B
:1005100020F00700854618B020B5FFF70FFFBDE8B3
:1005200020404FF000064FF000074FF000084FF05A
:10053000000B21F00701AC46ACE8C009ACE8C009EB
:10054000ACE8C009ACE8C0098D46704710B5044658
:10055000AFF300802046BDE81040FFF77EBE0000EC
:1005600001491820ABBEFEE726000200002904D096
:10057000816841F0010181607047816821F00101CB
:100580008160704710B5074C226807490A40D0E9DE
:1005900000131943D0E9023003431943114321608A
:1005A00010BD000004230140E030FCFF30B542687C
:1005B0000F4B1A400C790B6842EA04221343436044
:1005C00083680C4A1340D1E9034222434D798C6879
:1005D00044EA450422431A438260C26A22F470024C
:1005E000097D491EC9B242EA0151C16230BD000015
:1005F000FFFEFFFCFDF7FFC070B58CB0012108467F
:1006000001F0E2FD01210E02304601F015FE012548
:100610000A9503218DF82C1000248DF82F400AA98B
:10062000134801F035FB0121304601F013FE002193
:10063000304601F00FFE06942804079008940994B0
:1006400006A8FFF79FFF00948DF804408DF8054041
:10065000029404948DF81450064C69462046FFF726
:10066000A5FF01212046FFF781FF0CB070BD0000FF
:10067000000002400020014001EBD17253105B42A8
:10068000834202DD0844401E00B2B0EB620F02DD7F
:10069000401A401C00B27047FEE7000010B586B05B
:1006A0000C4C0221204600F0BDFA00280FD0022198
:1006B000204600F0EDF90849204600F0D1F901AAE2
:1006C0000021204600F0A0FB01A800F007F806B0CA
:1006D00010BD000000640040080000320168A1F570
:1006E0000071023919D10D4A01211171017BC27AC1
:1006F00041EA02220A490A83827B437B42EA0322BF
:100700004A83027BC07A42EA00200883044813210E
:100710004FF40052183001F0D6BC7047440100205D
:10072000843501202DE9F04F8BB00646DDF850A04E
:100730000F46904699460121082001F045FD012110
:10074000480601F05DFD0320099002258DF8285030
:1007500000248DF82A408DF8295001258DF82B5062
:10076000DFF8A8B009A9584601F092FA0922002141
:10077000584601F0CBFA09220121584601F0C6FA89
:100780008DF81E408DF81F508DF820408DF82140C7
:100790008DF822408DF823508DF81AA08DF81B603B
:1007A0008DF81C708DF81D80ADF81890184E06A9B4
:1007B000304600F0A7FA8DF812408DF813408DF8FE
:1007C0001450ADF80840ADF80A40ADF80C40ADF853
:1007D0000E40ADF810408DF8155002A800F0B8F9A1
:1007E00001220221304600F083FA14208DF8040023
:1007F00004208DF805008DF806408DF8075001A8FB
:1008000001F0A4FC0BB00020BDE8F08F000C02400A
:1008100000640040F0B585B000244FF48061009181
:1008200000218DF808108DF8091008218DF80A10A4
:100830008188090A8DF80B1001798DF80C10C18898
:10084000090A8DF80D1081798DF80E100189090AB9
:100850008DF80F10017A8DF81010817A8DF8111033
:10086000C07A8DF812000A4F6946384600F01DFB29
:10087000064640F6FF7501E0641CA4B231463846D6
:1008800000F06EFB002801D1AC42F5D305B0F0BDFD
:1008900000680040F0B585B00A9E002440F2FF35A4
:1008A000009500258DF808508DF8095008258DF821
:1008B0000A508DF80B601D0A8DF80C508DF80D3024
:1008C000130A8DF80E308DF80F200A0A8DF81020CB
:1008D0008DF811108DF812000A4F6946384600F065
:1008E000E4FA064640F6FF7501E0641CA4B2314606
:1008F000384600F035FB002801D1AC42F5D305B0F5
:10090000F0BD00000068004010B50D4C02212046EB
:1009100000F088F9002811D00221204600F0B8F834
:100920000849204600F09CF8074A0021204600F0C4
:100930006BFABDE81040044800F008B810BD000094
:100940000068004008000032143601200168A1F55B
:100950000071FF3902D10249807C087070470000A5
:10096000B10000202DE9F04F8BB0804689469246B9
:100970009B460121022001F027FC0121880601F09D
:100980003FFC354F09220521384601F0BFF9092205
:100990000621384601F0BAF96020029002268DF84F
:1009A0000C6000248DF80E4003208DF80D00012509
:1009B0008DF80F5002A9384601F06AF940208DF8F1
:1009C00004008DF805608DF806508DF8075001A8D9
:1009D00001F0BCFB214E304600F09EF808A800F064
:1009E00054FA8DF826408DF827408DF828408DF870
:1009F00029408DF82A408DF82B5014988DF822004C
:100A00008DF823808DF824908DF825A0ADF820B0C6
:100A100008A9304600F076F90E208DF81A008DF8FE
:100A20001B408DF81C50ADF81040ADF81240ADF8E9
:100A30001440ADF81640ADF818408DF81D5004A8CC
:100A400000F086F801220221304600F051F90BB087
:100A50000020BDE8F08F0000000402400068004064
:100A60000A4A914202D1002181617047C1F3130209
:100A70008B0101D5C26070474B0101D502617047FF
:100A8000090101D582607047426070477000F03004
:100A900030B5082310240422B1F5007F33D011DCD7
:100AA00020292AD007DC012922D0042923D00829B3
:100AB00000D1C46030BD402921D0B1F5807FF9D18B
:100AC000426030BD0025B1F5004F20D008DCB1F503
:100AD000806F1AD0B1F5006FF3D18561426030BDEF
:100AE000B1F5803F0DD0B1F5003FF8D1446030BD85
:100AF0000849816030BDC36030BD036130BD046111
:100B000030BD436030BD426030BD426030BD856164
:100B1000426030BD0101010010B50C4988420AD184
:100B200001214C06204601F079FB2046BDE810402B
:100B3000002101F073BB01218C06204601F06EFB01
:100B40002046BDE81040002101F068BB0064004071
:100B5000F0B5827A01219140304C226842F00102C6
:100B600022602E4D1C352A688A432A602B4A067B58
:100B70000C322B4B002E14D116688E43166046881B
:100B8000C78846EA0746877A03EBC707C7F8406677
:100B90000688878846EA0746877A03EBC707C7F8BF
:100BA0004466067B012E14D116680E4316604288F7
:100BB000068842EA0642867A03EBC606C6F8402655
:100BC000C288868842EA0642867A03EBC603C3F8E7
:100BD0004426124AC37A121D3BB113680B431360BB
:100BE0000E4A0389143223B106E013688B43136065
:100BF000F6E713688B4313600389012B02D1136856
:100C00000B431360407B012802D128680843286009
:100C1000206820F001002060F0BD00000066004068
:100C2000006000400246002053690B425DD0B1F5E0
:100C3000807F4AD016DC082937D009DC01292CD066
:100C400002292ED0042950D1D068082100F07EBDA1
:100C500010292ED0202930D0402946D110691021EA
:100C600000F074BDB1F5004F3BD00CDCB1F5007F56
:100C70002FD0B1F5806F30D0B1F5006F35D19069CC
:100C8000702100F063BDB1F5803F1AD0B1F5003F8F
:100C90002BD15068102100F059BD9068134900F025
:100CA00055BDD068032100F051BDD068102100F07F
:100CB0004DBD1069032100F049BD1069082100F005
:100CC00045BD5068082100F041BD9069012100F048
:100CD0003DBD9069022100F039BD9069042100F00A
:100CE00035BD5068042100F031BD7047010101009D
:100CF000002A03D042690A434261704742698A432D
:100D00004261704710B50022036823F002030360BC
:100D1000036843F0010303604FF6FF7300E0521CC9
:100D20004468E40701D19A42F9D14268D2073ED023
:100D30008A79012A3DD0026822F080020260CA79D5
:100D4000012A3BD0026822F0400202600A7A012A9E
:100D500039D0026822F0200202604A7A012A37D094
:100D6000026822F0100202608A7A012A35D00268F5
:100D700022F008020260CA7A012A33D0026822F007
:100D8000040202608A78CC78920742EA04620C7905
:100D900042EA04424C79098842EA0452491E0A4355
:100DA000C261016821F001010160002120E0002002
:100DB00010BD026842F080020260C0E7026842F0A3
:100DC00040020260C2E7026842F020020260C4E70B
:100DD000026842F010020260C6E7026842F00802B0
:100DE0000260C8E7026842F004020260CAE7491CD8
:100DF0004268D20701D09942F9D14068C00701D0BA
:100E0000002010BD012010BD10B500EB0113D3F878
:100E1000B04104F004041472002C2CD0D3F8B0417B
:100E2000E408546003F5D8731C6804F0020454729B
:100E30005C6804F00F0494725C68240AD4749C68A3
:100E4000D4729C68240A14739C68240C54739C68A4
:100E5000240E9473DC68D473DC68240A1474DC6890
:100E6000240C5474DB681B0E937449B1016941F082
:100E70002001016110BDD3F8B041640D1460D1E7C9
:100E8000C16841F02001C16010BD00218171C171B4
:100E9000017241728172C1728170C170032101714E
:100EA0000221417101210180704730B502460020C6
:100EB00093685B010AD49068000101D5012005E028
:100EC0009068C00001D5022000E0042004283BD037
:100ED00002EB0012D2F8803103F00103C2F8803136
:100EE0000B7A93B3D2F880414D681C434B7A43EAA6
:100EF000C5031C43C2F880418B7A03F00F038B7249
:100F000002F5C072536823F00F03536053688C7A64
:100F100023435360CB7A8C7B0D7B43EA04634C7B89
:100F2000240444EA052423439360CB7B8C7C43EA6E
:100F300004634C7C097C240444EA01210B43D36004
:100F4000116841F00101116030BDFFE7D2F8803136
:100F50004C7A23430C8843EA4453C2F88031CBE7F0
:100F60000022002904D0012906D002290BD107E074
:100F700082681848024006E082681748024002E092
:100F80008268164802401649501A8A4218D007DC77
:100F900092B16FF08060101810D0022809D113E0D0
:100FA000B0F5007F12D00F4940180BD0B0F5003FCC
:100FB0000ED00020C0B270470220FBE70020F9E706
:100FC0000020F7E70020F5E70120F3E70120F1E733
:100FD0000120EFE7030000040003000800000310F5
:100FE000000100080001FFF7052003F06FFA0A482E
:100FF00002F006F8084C02F091FF074801F0C2FF2A
:1010000094F8C80201F016FC034800F071FB0220BE
:1010100003F05CFAEFE700006C3601207CB5064671
:10102000002402F065FFBCEEC00A10EE105A02F078
:1010300067FFCA218DF80010290E8DF80110290CC8
:101040008DF80210290A8DF803108DF804508DF8E0
:1010500005008DF80660DB208DF80700084E6D4610
:101060004021304601F0CCFD0028F9D0295D304602
:1010700001F066FE641CE4B2022CF1D37CBD0000DA
:1010800000440040F8B5002401200090084E6D4651
:101090004021304601F0B4FD0028F9D0295D3046EA
:1010A00001F04EFE641CE4B2002CF1D0F8BD00004B
:1010B000004400402DE9F041044602F04BFA704F25
:1010C000B87001F007FF012803D001F003FF20B141
:1010D00006E002F0C9FFF88202E002F003FFF882A6
:1010E000F88A9FED680A0A2803D387ED0A0ABDE84B
:1010F000F081B87801260025012808D00028F6D113
:1011000087ED0A0A00F052FE01287DD0ADE0B888D4
:10111000401CB88000F04AFE012803D000F038FEE1
:10112000012804D13E81BD80FD807D81BD82B888CB
:101130004FF4D77840450FD93D81BD8041F25041F1
:1011400041F2243001F008FAF86200EE100AB8EE1D
:10115000C00A87ED0A0A05E097ED0B0AB8EEC00A4F
:1011600087ED0A0A7889401C788100F01FFE01286B
:1011700006D100F00DFE18B9BE81A7F810807D8160
:1011800000F014FE40B900F003FE012804D1022053
:10119000B881A7F80E807D81388908BBB8890128FD
:1011A00002D002280ED01BE07989F889814217D934
:1011B00094F8CA12A1B984F8CA627D8100F5D7708B
:1011C000F8810DE07989388A814209D994F8CA12E8
:1011D000012905D184F8CA527D8100F5D770388283
:1011E00002F048FF798A081A388302F043FF7882B8
:1011F000B88A401C80B2B8824FF6F071884200D99C
:10120000BD82388B0A2800E02AE010D3B88A404516
:101210000DD9388958B994F8CA0268B184F8CA520D
:1012200041F62C20F862BD80FD807D81BD8200F0FA
:10123000BDFD012803D007E084F8CA62F0E700F0A2
:10124000A7FD08B984F8CA5200F0B0FD00287FF469
:101250004EAF00F09DFD0128F9D184F8CA6246E73F
:1012600000F096FD08B984F8CA5200F09FFD0028EE
:10127000F5D100F08DFD0128F1D184F8CA6236E77E
:10128000B4000020000000002DE9F04104462DEDDF
:10129000028B00F08BFD9FED3B8A00263A4D012822
:1012A00006D100F075FD18B984F8CA6285ED0A8A86
:1012B00000F07CFD012738B900F06AFD012803D158
:1012C00084F8CA7285ED0A8A00F070FD002855D1B5
:1012D00000F05EFD002851D19FED2C0A85ED0A0A31
:1012E000E86941F2883801283ED10F21052001F03C
:1012F00033F96863A8639FED268A0A2818DD84F80D
:10130000CA72286BA0B9686C401C686485ED0A8AB3
:101310000F21052001F020F9E8632864696C8142FF
:1013200006D12046FFF7C6FE404602F04FF8EE61B8
:10133000A86B0A2818DA84F8CA62286BA0B9686C0E
:10134000401C686485ED0A8A0F21052001F004F92C
:10135000E8632864696C814206D12046FFF7AAFE43
:10136000404602F033F8EE61E869002806D12046D5
:10137000FFF7A0FE404602F029F8EF61BDEC028BBA
:10138000BDE8F08100C0DA45B40000200060D1451E
:1013900000B808470168B1F9021000EE101A1149AF
:1013A000B8EEC00A81ED090A0268B2F9022000EE27
:1013B000102AB8EEC00A81ED080A00680022B0F9D0
:1013C0000800B0F5FA7F02DB4A700A70704710F52A
:1013D000FA7F02DC4A700A707047022048700A7077
:1013E00070470000B4000020002120F8741F8183A2
:1013F0000187A0F8541007489FED050A80ED0A0AFE
:1014000080ED090A80ED080A0221417001707047E1
:1014100000000000B40000202DE9F04F80462DEDC3
:10142000048B83B089469246884FB8F8000039880B
:10143000401A04B2ADF80440B9F800007988401AA7
:1014400005B2ADF80650BAF80000B988401A06B2E5
:10145000ADF80860DFF8F8B1F1EE069AB0EE0C9A3C
:10146000DBF80000F3EE038AC07A01286ED100EEAB
:10147000104AB8EEC00A02F05BF810EE100A754987
:10148000884217DD08EE104AB8EEC80A02F050F89C
:10149000B8EEC81AB7F90000C1EE000A00EE100A53
:1014A000B8EEC00A00EEA90ABDEEC00A10EE100A9E
:1014B000A8F8000000EE105AB8EEC00A02F038F8A2
:1014C00010EE100A6449884217DD08EE105AB8EE93
:1014D000C80A02F02DF8B8EEC81AB7F90200C1EE3A
:1014E000000A00EE100AB8EEC00A00EE890ABDEE4E
:1014F000C00A10EE100AA9F800009BF89402052813
:1015000001D0062822D100EE106AB8EEC00A02F01F
:101510000FF810EE100A5149884217DD08EE106AE4
:10152000B8EEC80A02F004F8B8EEC81AB7F9040019
:10153000C1EE000A00EE100AB8EEC00A00EEA80ADA
:10154000BDEEC00A10EE100AAAF80000DBF8000099
:10155000C07A03286CD100EE104AB8EEC00A01F040
:10156000E7FF10EE100A3B49884217DD08EE104AEB
:10157000B8EEC80A01F0DCFFB8EEC81AB7F90000EF
:10158000C1EE000A00EE100AB8EEC00A00EEA90A89
:10159000BDEEC00A10EE100AA8F8000000EE105AC6
:1015A000B8EEC00A01F0C4FF10EE100A2A498842C2
:1015B00017DD08EE105AB8EEC80A01F0B9FFB8EE10
:1015C000C81AB7F90200C1EE000A00EE100AB8EE20
:1015D000C00A00EE890ABDEEC00A10EE100AA9F892
:1015E00000009BF89402052822D100EE106AB8EEA4
:1015F000C00A01F09DFF10EE100A1849884217DD5D
:1016000008EE106AB8EEC80A01F092FFB8EEC81AE8
:10161000B7F90400C1EE000A00EE100AB8EEC00AE5
:1016200000EEA80ABDEEC00A10EE100AAAF80000EB
:10163000B8F800003880B9F800007880BAF80000E7
:10164000B88003B0BDEC048BBDE8F08F38010020FA
:101650006C3601200000B04000006040000098415E
:1016600038B5044602F04CFC00EE100AB8EE400A11
:1016700084ED130A10EE100A1B4908441B498842E6
:1016800016D2B4F99010080000D54042206520EE33
:10169000000AF1EE0A0A20EE200ABDEEC00A10EEA2
:1016A000102A62654A4392FBF0F0A4F890000DE026
:1016B00010EE100A0C49C943884207DC002024F8C8
:1016C000740FA0832087A4F85400743C0E2000906F
:1016D00004F1C80304F1AC0204F1900104F17400B8
:1016E00000F07EFB38BD0000FFFF5FBFFFFF9D02E3
:1016F000F8B590F89412144CA168002904D1006840
:10170000FFF788F80120A060A068012801D100201F
:10171000A06001F0F1FBBDEEC00A10EE100AA0803F
:1017200001F0D8FB207002F0F1FB054602F0AEFCA0
:10173000064602F0B1FC009502463346B4F90410A7
:101740002078FFF7A7F8F8BD180100200246002016
:101750000A4200D00120704710B501FB02F303EBF1
:10176000D374B0EB640F01DD01FB1200594201EBB1
:10177000D171B0EB610F00DA181A10BD0A4C0020CD
:10178000C4F89C02052002F0A1FE4FF4C875D4F8FD
:101790009C1231B10021C4F89C12284602F096FE3A
:1017A000F5E70121F7E700000080404270B50D4DDC
:1017B0000D4C2946204600F013F9012810D1294686
:1017C000204600F035F82946204600F047F8074942
:1017D00001F1120000F09EFDBDE8704000F0F5BA86
:1017E00070BD000000880020886402402836012077
:1017F00070B50C4D0C4C2946204600F00BF9002822
:101800000FD02946204600F013F80021204600F0B2
:101810003BF8BDE87040012240F22661034801F028
:1018200016BA70BD00802020A06402400014014060
:10183000074A904201D2074801E005481038064A9D
:101840008B0001EA020101D5C160704781607047D9
:1018500010640240006002407D0F7D0F074A9042F5
:1018600001D2074801E005481038064A8B0001EA1A
:10187000020101D5C1607047816070471064024069
:10188000006002407D0F7D0F002904D0016841F007
:10189000010101607047016821F00101016070479A
:1018A0002DE9F043016821F0010101600021016090
:1018B00041608160C1600161212141613E493E4A30
:1018C00010394FF03D08904203D1C1F80880BDE8BF
:1018D000F083394A4FF474651832904201D18D601B
:1018E000F5E7354A4FF474163032904201D18E60DC
:1018F000EDE7314A4FF074674832904201D18F6072
:10190000E5E72D4B2D4A6033984201D1CA60DEE7EE
:10191000294C2B4B7834A04201D1CB60D7E7DFF8BC
:1019200098C0284C0CF1900C604501D1CC60CEE7FA
:10193000DFF884904FF03D5C09F1A809484502D1D9
:10194000C1F80CC0C3E72049DFF87C90083948454E
:1019500002D1C1F80080BAE7DFF86C8008F11808FE
:10196000404501D10D60B2E7174D3035A84201D195
:101970000E60ACE7144D4835A84201D10F60A6E7D0
:10198000114D11496035091FA84201D10A609EE737
:101990000D4A7832904201D10B6098E70A4A9032A2
:1019A000904201D10C6092E7074AA83290428ED152
:1019B000C1F800C08BE70000106002403D0000202D
:1019C000400F002000003D2010640240014600202E
:1019D0000968C90700D001207047406880B270478D
:1019E00002460020084B9A4201D2084A01E0064A0A
:1019F000103A8B0001D5526800E01268044B1A407F
:101A00000A4200D00120704710640240006002408A
:101A10007D0F7D0F30B500240F4A904201D20F4A4E
:101A200001E00D4A103A0E4B194205D01E2303EA7D
:101A3000D12503682B4002E0406900F08003880054
:101A400001D5506800E01068064A1040084201D0F5
:101A500003B10124204630BD106402400060024002
:101A60003C0F3C0F7D0F7D0F0B0609D522B143695A
:101A700043F08003436103E0436923F08003436143
:101A8000802905D001F01E011AB102680A430260E4
:101A9000704702688A4302607047000030B50368EF
:101AA000124A1340CC680A682243D1E905452C4309
:101AB0002243CC6922430C6A22434C6A22438C6A3B
:101AC00022434C6B22438C6B22431A4302604269CF
:101AD00022F00703D1E90B2422431A4342610A6929
:101AE00042604A6882608968C16030BD3F801CF0F6
:101AF000416070470021016041608160C160016107
:101B000041618161C161016241628162C1620163BF
:101B10004163816370477047052002F0D7FC00F0F5
:101B200097F8DFF86C90184DDFF86080194F0026A9
:101B30004FF47A74A9F1040A286840B100202860A3
:101B4000C8F88C0200F048FD012802D009E001200D
:101B5000F5E700F079FD012811D000F075FD0328AC
:101B60000DD0C9F80040CAF80040A7F8566087F8C1
:101B7000586000F041FA022002F0A8FCDCE700F017
:101B80000BF800F041FAF6E7400100200000424265
:101B9000380800403839012070B52A4C40F2944092
:101BA0002060251F286000F03DFD274E707000F07A
:101BB00023FD307001467078543EC8B101281CD016
:101BC0004FF47A7202281DD022602A601E4842F229
:101BD0001C534C38022918D001B3032928D031688E
:101BE000B1F90220002100F035FDA6F8560070BDC5
:101BF00040F2A94020602860E8E740F2CA40206037
:101C00002860E3E722602A60E0E73168B1F902204A
:101C1000002100F01FFDA6F8560070BD3168B1F933
:101C2000022040F6B83100F015FDA6F8560070BD50
:101C30003168B1F90220054900F00CFDA6F8560004
:101C400070BD0000380800408C39012048F4FFFFC7
:101C500010B501F085FC0C4C44F83A0C0220A0763B
:101C6000E076DFED0A0AB2EE080AA4F13200B0EE27
:101C7000602AF0EE601AB0EE601A01F0AFFC0020AE
:101C8000A083A07710BD0000723901200000000081
:101C90002DE9F041002201274FF0030C07FA02F56D
:101CA0000B682B40AB422CD1066853000CFA03F4AE
:101CB000A64306600E79D0F800809E4046EA0806EA
:101CC00006600E79012E01D0022E12D18668A6433D
:101CD00086604E79D0F808809E4046EA0806866005
:101CE0004668AE43466045688E799640B6B2354345
:101CF0004560C568A543C560CC799C40C3681C435A
:101D0000C460521C102AC9D3BDE8F08110B54B073E
:101D1000DB0E9A40C90800EB8100016A0F249C4049
:101D2000A1430162016A1143016210BD0246002015
:101D300012690A4200D00120704741837047018335
:101D40007047000010B503461046002B01D0084C28
:101D50000AE04FF6FF7010BD13F8012B4240D2B2DB
:101D600034F8122082EA1020491E4A1CF4D110BD1A
:101D7000C252000810B5054C03E010F8013B534077
:101D8000E25C491E4B1CF8D1104610BDC251000840
:101D900010B580210348FFF7C9FF03490870C0B29E
:101DA00010BD000000000240A400002010B540213A
:101DB0000348FFF7BBFF03494870C0B210BD0000E5
:101DC00000000240A4000020FEE700F001B800007F
:101DD00002494AF6AA20086070470000003000401F
:101DE0002DE9F0410446DDF818800D4616461F46E1
:101DF000B6F90000B7F9001001F0D6FB0146B5F9BD
:101E0000000001F0D1FB0146B4F9000001F0CCFB69
:101E1000294A5080B8F1000F48D008EB481101EB77
:101E20008101B0EB810F3FDD4FF4257108FB01F814
:101E300090FBF8F000EE100AB8EEC00A82ED030A3B
:101E4000B4F9000000EE900AF8EEE00A80EE801A85
:101E5000FDEEC10A10EE900A2080B5F9000000EEF8
:101E6000900AF8EEE00A80EE801AFDEEC10A10EE4C
:101E7000900A2880B6F9000000EE900AF8EEE00A19
:101E800080EE801AFDEEC10A10EE900A3080B7F99C
:101E9000000000EE900AF8EEE00A80EE801ABDEE37
:101EA000C10A10EE100A3880BDE8F08100203880A9
:101EB000308028802080F7E7180100202DE9FC41C0
:101EC0000121102000F080F90121022000F07CF9AE
:101ED0000420009001248DF8044000258DF8065060
:101EE00003268DF805608DF80740324F6946384665
:101EF000FFF7CEFE082000908DF804408DF80650C4
:101F00008DF805608DF8074069463846FFF7C0FE3A
:101F1000102000908DF804408DF806508DF8056073
:101F20008DF8074069463846FFF7B2FE00948DF8F9
:101F300004408DF806508DF805608DF8074069461D
:101F40003846FFF7A5FE022000908DF804408DF87A
:101F500006508DF805608DF8074069463846FFF752
:101F600097FE802000908DF804408DF806508DF883
:101F700005608DF80740104C69462046FFF788FE43
:101F800004213846FFF7DBFE08213846FFF7D7FE6D
:101F900010213846FFF7D3FE01213846FFF7CFFE68
:101FA00002213846FFF7CBFE80212046FFF7C7FE0F
:101FB000BDE8FC8100100240000402401CB5012174
:101FC000084600F001F903208DF8050000208DF887
:101FD000040002208DF8070040200090054C69465F
:101FE0002046FFF755FE8021009169462046FFF705
:101FF0004FFE1CBD000002404FF480510148FFF726
:102000009CBE0000000002404FF480510148FFF7E1
:1020100096BE00000000024010B50446D4ED050A4B
:1020200030EEC00A84ED100A94ED0C0A30EE000A7E
:1020300084ED0C0ABDEEC00A214A10EE100A51428E
:1020400001F0A3FA00EE100AF8EEC00AC4ED0C0A83
:1020500094ED101A94ED110A71EE401ABDEEE10AEA
:1020600094ED0E2A84ED0F2A94ED0D2A84ED0E2AAC
:10207000C4ED0D1AD4ED001A94ED012AF8EEC03A21
:1020800061EE811AD4ED022AB0EE613A42EE201AD6
:1020900042EEA31AC4ED071A84ED093A62EE200A53
:1020A000C4ED0A0AB8EEC00A22EE800A84ED0B0ADB
:1020B00084ED111ABDEEE10A10EE100A10BD000009
:1020C000F0D8FFFFFEE770B504460E461546E089DE
:1020D000002803D1208820810120E08120882189E7
:1020E000401A00B22946FEF7C7FA21690844206168
:1020F0002A463146FFF730FB20612088208170BDE1
:1021000070B505469DED040A059C08461E46B8EECE
:10211000C00A80ED050A00EE102AB8EEC00AFFF7EB
:102120007BFF00EE100AB8EEC00A85ED050A00EE4E
:10213000106A2846B8EEC00AFFF76EFF62422146D9
:1021400001F023FA00B270BD7047000030B50F23D4
:10215000C27801250178002A1FD0154A126802F4BE
:10216000E062C2F5E062C2F30722C2F10404D34088
:102170004278A24084781C401443220101F1E021FE
:1021800081F80024007800F01F018D404009800094
:1021900000F1E020C0F8005130BD01F01F00854083
:1021A0004809800000F1E020C0F8805130BD0000F7
:1021B0000CED00E002490843024908607047000046
:1021C0000000FA050CED00E0054A002903D0116873
:1021D000014311607047116881431160704700002E
:1021E00030380240054A002903D0116801431160CC
:1021F0007047116881431160704700003438024015
:10220000054A002903D01168014311607047116825
:10221000814311607047000040380240054A0029A0
:1022200003D0116801431160704711688143116048
:102230007047000020380240054A002903D0116889
:1022400001431160704711688143116070470000BD
:1022500044380240054A002903D011680143116047
:1022600070471168814311607047000024380240B4
:1022700070B5244B196801F00C01234C00291ED0C5
:10228000224E04291DD008291DD00460196801F0D0
:10229000F00109091E4A545C0168E14041601C6874
:1022A00004F4E054A40A145D21FA04F484601B6869
:1022B00003F460435B0BD25CD140C16070BD04602D
:1022C000E4E70660E2E70F4A121F1168C1F3805588
:1022D000116801F03F0135B1B6FBF1F11468C4F3A8
:1022E0008814614305E0B4FBF1F11468C4F3881469
:1022F00061431268C2F30142521C5200B1FBF2F179
:102300000160C3E7083802400024F40040787D01F2
:1023100014000020F0B5414BD3F88022002A63D08E
:102320000022C3F88022002974D0002872D00A78D5
:102330004B7842EA0322C2F30A0202804B788C787F
:10234000DB0843EA4413C3F30A0343808C78CD7857
:10235000A40944EA85040D7944EA8524C4F30A04F7
:1023600084800D794E796D0845EAC615C5F30A05D6
:10237000C5804E79B60986724E79C6F30116C672CB
:102380008E79CF7946EA072686810E7A4F7A46EA19
:102390000726C6818E7ACF7A46EA072606820E7B0A
:1023A00086744E7BC6748E7BCF7B46EA0726868278
:1023B0000E7C497C46EA0121C1F30A01A2F5806244
:1023C0000280A3F580634380A4F580648480A5F532
:1023D0008065C580A1F58061018102F10A060021B6
:1023E000152E03D3028002E001229AE7018003F157
:1023F0000A02152A01D3438000E0418004F10A0259
:10240000152A01D3848000E0818005F10A02152A93
:1024100001D3C580F0BDC180F0BD00000000424284
:1024200070B51C4CB4F9000001F0AAF84FF42F75F8
:10243000A84216DCB4F9020001F0A2F8A84210DCB0
:10244000B4F9040001F09CF8A8420ADCB4F90600D3
:1024500001F096F8A84204DCA07A10B1E07A0028D6
:1024600016D1002020806080A080E0802081A081A3
:10247000E0812082A074E074A082022000F0A6FF18
:10248000122000F009F8BDE87040022000F09EBF65
:1024900070BD00003A36012070B50646124C00218E
:1024A000204600F017FB114D00212846FFF7ECF9FC
:1024B00031462846FFF71CFB1021204600F0FEFAAB
:1024C0004FF081512846FFF7B3F909492846FFF735
:1024D000C5F901212846FFF7D7F92046BDE870402D
:1024E000012100F0F7BA00000010014040640240F2
:1024F00000802010052001F0E9FFC82001F0E6FF70
:10250000FBE700000649002804D0086840F00400FA
:1025100008607047086820F00400086070470000F9
:102520000008065001460020024A12680A4200D004
:1025300001207047040806500148006870470000F9
:102540000808065010B50120FFF7ECFF0028FAD06C
:10255000BDE81040FFF7F0BF70B504460D46FFF729
:10256000F1FF291B491CB0FBF1F201FB12002044D2
:1025700070BD70B5002401214020FFF733FE01201B
:10258000FFF7C0FF42F2107504E0641CA4B264209F
:1025900000F021FF0120FFF7C5FF08B9AC42F4D3DA
:1025A000AC4201D3012070BD002070BD1221014852
:1025B00000F0CCBB28360120064800210180418074
:1025C0008180C18001818181C18101828174C17456
:1025D000818270473A360120064890F8940200281C
:1025E00005D0012803D0022801D001207047002027
:1025F000704700006C36012009484078002807D059
:10260000012807D0022807D0032807D004207047EC
:102610000020704701207047022070470320704758
:10262000B400002007480078002805D0012805D014
:10263000022805D003207047002070470120704712
:1026400002207047B40000200148807A70470000E3
:102650003A36012010B51C4600EE101AB8EEC00A3A
:1026600080ED050A00EE102AB8EEC00A80ED060AD9
:10267000FFF7D2FC6242214600F087FF00B210BD96
:102680001CB501F04FFE19480221CDE900100023CE
:10269000322217A1194802F099FB14480521083885
:1026A000CDE900100023C82215A1194802F08EFBC5
:1026B0000E480424001FCDE900400023322215A15A
:1026C000174802F083FB09480023001DCDE90040B4
:1026D000C82214A1164802F079FB044808380069A2
:1026E00001F01CFFBDE81C4001F03CBE0C010020C5
:1026F0004445544543545F5461736B007D17000893
:10270000434841535349535F5461736B00000000C9
:10271000E90F0008464952455F5461736B000000A1
:10272000191B000852454D4F54455F5461736B00AF
:10273000F52400080CB50022019200922749086890
:1027400040F4803008604FF4A043086800F4003083
:1027500000900198401C0190009810B9019898428F
:10276000F3D10868800302D50120009000E00092B8
:102770000098012831D119484030026842F0805257
:1027800002601748026842F4404202601348083071
:1027900002680260026842F400420260026842F489
:1027A000A0520260021F0F4B13600A6842F0807251
:1027B0000A600A689201FCD50B4A40F2057111606B
:1027C000016821F003010160016841F0020101602C
:1027D0000168C1F381010229FAD10CBD0038024021
:1027E0000070004019544007003C02401CB50548E9
:1027F0000521CDE900100023322203A1054802F093
:10280000E5FA1CBD1401002053544152545F546139
:10281000736B0000812600080178AC2907D1C178CC
:10282000BD2904D1024942780A7080784870704707
:102830000001002010B505490978012905D1FEF7EE
:10284000EDFBBDE81040FEF71DBC10BDFC000020F4
:1028500010B502F0EBFA012803D0BDE8104002F0F9
:1028600027B810BD10B51248016841F4700101602D
:102870001048016841F0010101600E4A0021083250
:10288000116002680C4B1A400260031D0B4A1A606B
:10289000026822F48022026006480C300160FFF7D3
:1028A00049FF03494FF000608039086010BD000007
:1028B00088ED00E000380240FFFFF6FE10300024F3
:1028C00038B501F02FFD0A2000F080FD4FF4407074
:1028D000FFF770FCFFF76AFE01F0EAFBFFF7EEFA84
:1028E000FFF76CFB002403230422072120460094F9
:1028F000FDF718FF03230422072100200094FEF7B0
:1029000031F8FFF736FEFDF777FE05490120086034
:10291000642000F05BFDBDE8384001F023BD0000FD
:102920009C82404210B501218C07204600F02AF815
:102930002046BDE81040012100F021B810B50C4C34
:102940000121204600F01EF8002810D00121204669
:1029500000F015F80121204600F00EF8054908881E
:10296000401C00B208800A2801D10020088010BD58
:102970000010004098000020C94301827047C943FD
:102980000182704702460020138A0B4092890A4058
:10299000002B02D0002A00D00120704770B51B4CDC
:1029A00040F22441204600F032F900282CD0184D86
:1029B00000212846FEF768FF2846FFF707F80028A1
:1029C000FAD120881148001D00882846FFF705F835
:1029D000C0F11900C2B20F48428000210E4C0F4BCB
:1029E00003E0605C5854491C89B29142F9D30B480A
:1029F000FFF712FF19212846FFF77AF82846BDE8AD
:102A000070400121FEF740BF70BD0000004400404F
:102A100088600240FC000020902E012050360120EA
:102A2000F8B500240094224E40F22667394630461D
:102A300000F0EDF81F4D012809D13946304600F06D
:102A400041F800223946304600F001F92C70344636
:102A500040F22441204600F0DAF8002821D02088F6
:102A600000901348001D008800901348FEF7B5FF42
:102A700000906868B0B1018ABDF80020891A828987
:102A8000531E1940436819444160BDF80030038269
:102A90008368CB1A934204D98160C18941F0040153
:102AA000C181F8BDC18941F00201C181F8BD0000BA
:102AB000001401409C000020286402408A05C9439C
:102AC0000180704740F66A120A0A01219140C94309
:102AD00001807047002904D0818941F4005181812F
:102AE0007047818921F4005181817047002A03D009
:102AF000828A0A4382827047828A8A43828270472E
:102B000010B53749884209D101211020FFF7A2FBF7
:102B10000021BDE810401020FFF79CBB31498842DE
:102B20000AD101214C042046FFF778FB2046BDE87E
:102B300010400021FFF772BB2B4988420AD10121C6
:102B40008C042046FFF76AFB2046BDE810400021B8
:102B5000FFF764BB254988420AD10121CC042046F5
:102B6000FFF75CFB2046BDE810400021FFF756BB95
:102B70001F4988420AD101210C052046FFF74EFB70
:102B80002046BDE810400021FFF748BB19498842A4
:102B900009D101212020FFF75DFB0021BDE8104095
:102BA0002020FFF757BB144988420AD101218C0726
:102BB0002046FFF733FB2046BDE810400021FFF719
:102BC0002DBB0E4988420AD1440501212046FFF75A
:102BD00025FB2046BDE810400021FFF71FBB10BDBC
:102BE000001001400044004000480040004C0040FC
:102BF000005000400014014000780040007C00407C
:102C00000246002012880A4200D00120704770B5A9
:102C1000002440F66A12C1F3421301F01F05012699
:102C200006FA05F2012B0CD0022B0DD0838A13403B
:102C3000090A8E40008830400BB100B101242046C3
:102C400070BD83891340F3E7038A1340F0E710B5A2
:102C500040F66A13C1F3421301F01F040121A140A1
:102C6000012B07D0022B07D014303AB102680A4377
:102C7000026010BD0C30F8E71030F6E702688A43B6
:102C8000026010BD7FB504460D46208A20F44051F5
:102C9000E88808432082A08941F20C618843A98812
:102CA0002A8911436A8902431143A181A08A20F431
:102CB0004071A8890843A0826846FFF7D9FA1E48E8
:102CC000844202D01D48844201D1039800E002985A
:102CD000A189090408D500EBC00101EB00102968A7
:102CE0004900B0FBF1F007E000EBC00101EB001080
:102CF00029688900B0FBF1F06422B0FBF2F1090110
:102D00000B096FF018056B4300EB8300A3891D04CA
:102D10004FF0320307D503EBC000B0FBF2F000F038
:102D20000700084306E003EB0010B0FBF2F000F0F0
:102D30000F00084320817FBD0010014000140140B6
:102D4000C1F3080181807047FEE700002DE9F041E2
:102D500096B080460F4601213D48FFF735FA012124
:102D60001020FFF769FA3B4D07220A212846FEF79B
:102D7000CDFF2E15149602208DF8540000248DF8F6
:102D8000564003208DF855008DF8574014A9284669
:102D9000FEF77EFF304D2846FFF7B2FE2F48109019
:102DA000ADF84440ADF84640ADF848600420ADF8B9
:102DB0004A00ADF84C4010A92846FFF763FF0121F7
:102DC0002846FFF787FE012240212846FFF78EFEA6
:102DD00044208DF800008DF801408DF8024001205C
:102DE0008DF803006846FFF7B1F91D4D0021284614
:102DF000FEF74AFD2868C007FCD12846FEF750FDC3
:102E00004FF0006001901448001D0290CDF80C8036
:102E100004940597069407960894099480150A90DF
:102E20004FF440300B900C940D940E940F9401A924
:102E30002846FEF733FE012210212846FEF714FE35
:102E400001212846FEF720FD16B0BDE8F081000004
:102E5000010040000000024000100140A086010077
:102E60008864024030B505460C46002D01D0022C86
:102E700001D8002030BD0A48A11E02882846FEF76E
:102E800061FF2919C2B211F8023C9A4206D111F829
:102E9000011CB1EB102F01D1012030BD002030BD4D
:102EA000A600002030B505460C46002D01D0022CAE
:102EB00001D8002030BDFF22611E2846FEF75AFFD0
:102EC000291911F8011C814201D1012030BD0020D7
:102ED00030BD000010B501F0D3F80649487007284E
:102EE00004D06B2801D10020087010BD01200870AB
:102EF00010BD0000180100200248D0F8860000EE46
:102F0000100A7047EC34012010B50446204600F04A
:102F100025F994F89402092802D12046FEF7CAF850
:102F200094F89402082802D12046FEF733FA94F868
:102F300094020A2802D12046FEF7A6F994F89402DA
:102F400010B92046FEF750FA0D4890ED0A0ABDEE82
:102F5000C00A10EE101A90ED090A0BB2BDEEC00ABD
:102F600010EE101A90ED080A0AB2BDEEC00A10EE7B
:102F7000100A01B22046BDE8104000F0D5B90000AB
:102F8000B400002010B50446FFF74AFA204600F0CE
:102F90000BF8204600F0C6F9204600F026F920463E
:102FA000BDE81040FEF75CBB10B500219FED130A91
:102FB000C1EBC10200EB8202D36DB3F9024000EE17
:102FC000904AF8EEE00AC2ED190A1B8800EE903A2A
:102FD000F8EE600AC2ED1B0A01EB410303EB01139B
:102FE00000EB8303D3ED400A60EE800AC2ED180ABD
:102FF000491CC9B20429DBD310BD00000000FA430C
:1030000070B504462DED028B00F0B6FA2060002565
:10301000284600F095FAC5EBC50104EB8101C865AF
:103020006D1CEDB2042DF3D300F0A2FAE06000F0C5
:103030009BFAA060FFF7F4F99FED398A04F295201E
:10304000B0EE480A00F06AFAB0EE480A04F2A52091
:1030500000F064FA9FED338AF0EE000AB2EE000A47
:10306000B0EE482AF0EE481AB0EE481A04F1CC004F
:1030700000F0B4FAB0EE482AF0EE481AB0EE481A62
:10308000F0EE000AB2EE000A04F58C7000F0A6FA29
:10309000DFED258AB0EE482AF0EE481AB0EE681A45
:1030A000F0EE480AB2EE000A04F5B27000F096FAAB
:1030B000B0EE482AF0EE481AB0EE681AF0EE480A70
:1030C000B2EE000A04F5D87000F088FAB0EE482A93
:1030D000F0EE481A9FED151AF2EE040A9FED140A5D
:1030E00004F5FE7000F07AFAB0EE482AF0EE481AC5
:1030F0009FED101AF0EE480AB2EE040A04F51270C1
:1031000000F06CFA002084F89402012084F8CA02CE
:103110002046BDEC028BBDE87040FFF745BF0000C4
:1031200060E5503D00000000CDCC4C3ECDCC2C41A4
:103130000000C8426666E63F10B50648064CD0F867
:103140009D026061206100F0A1FFA06100F0AAFF74
:10315000E06110BD6C3601201801002070B50446F6
:1031600008252068C07A012821D194F8940220B95A
:10317000FFF722FA2046FEF737F994F89402022866
:1031800004D1012084F89402FFF716FA206809217F
:10319000827A012A01D184F89412827A022A01D11A
:1031A00084F89452807A032801D184F8941220681C
:1031B000C07A032809D194F8940220B9FFF7FCF9EA
:1031C0002046FEF711F984F8945220680225C07A4F
:1031D000022803D184F89452FFF7EEF92068C07AF0
:1031E000002801D184F8945270BD2DE9FC470446B3
:1031F00041F2883594ED190A94F8941204F1CC0048
:10320000BDEEC00A04F58C7704F5B27804F5D879E0
:1032100007294AD0703410EE101A14ED020A2B461A
:103220000AB2BDEEC00A10EE101A09B2FFF712FA88
:10323000A08094ED040A2B46BDEEC00A10EE100AE1
:1032400094ED050A02B2BDEEC00A10EE100A01B2FA
:103250003846FFF7FFF9208494ED0B0A2B46BDEEAC
:10326000C00A10EE100A94ED0C0A02B2BDEEC00ABC
:1032700010EE100A01B24046FFF7ECF9A08794ED7A
:10328000120A2B46BDEEC00A10EE100A94ED130A86
:1032900002B2BDEEC00A10EE100A01B24846FFF7B6
:1032A000D9F9A4F85800BDE8FC8710EE101A0026E2
:1032B000CDE900650BB204F5FE7132468A46FEF791
:1032C0001FFF24F8740FCDE9006594ED030A002276
:1032D0005146BDEEC00A10EE100A03B23846FEF7A2
:1032E0000FFFA083CDE9006594ED0A0A0022514644
:1032F000BDEEC00A10EE100A03B24046FEF700FF12
:103300002087CDE9006594ED110A00225146BDEEFB
:10331000C00A10EE100A03B24846FEF7F1FEA4F808
:103320005400C0E7FFF7F0BD1FB5044603AA02A989
:1033300001A8FEF771F8BDF90400404200EE100A42
:1033400004F29520B8EEC00A00F0CCF8BDF90800F0
:1033500000EE100A04F2A520B8EEC00A00F0C2F890
:1033600094F8940208280DD1BDF90410F1EE040A76
:1033700000EE101AB8EEC00A20EE200A84EDB00A62
:1033800084ED210A022805D19FED0F0A84EDB00AD1
:1033900084ED210A092801D00A2812D1BDF90C00B8
:1033A00000EE100AB8EEC00A84EDB00A94F8CA0222
:1033B000012801D184ED210A18B9B1EE400A84ED4B
:1033C000210AFFF7B9FE1FBD000000004FF47A711B
:1033D0004843AFF30080002148E000BF00BF00BFBA
:1033E00000BF00BF00BF00BF00BF00BF00BF00BFE5
:1033F00000BF00BF00BF00BF00BF00BF00BF00BFD5
:1034000000BF00BF00BF00BF00BF00BF00BF00BFC4
:1034100000BF00BF00BF00BF00BF00BF00BF00BFB4
:1034200000BF00BF00BF00BF00BF00BF00BF00BFA4
:1034300000BF00BF00BF00BF00BF00BF00BF00BF94
:1034400000BF00BF00BF00BF00BF00BF00BF00BF84
:1034500000BF00BF00BF00BF00BF00BF00BF00BF74
:1034600000BF00BF00BF00BF00BF491C8142B4D3F2
:103470007047002A02D0531E1A4202D04FF0FF308C
:1034800070470023436083600160828102820020D4
:1034900070472DE9F04104460F46D4E90101411A75
:1034A000104600F096F80546A089A168421E11401A
:1034B000411A284600F08DF80646A189A068491EE9
:1034C00008402168324601443846FCF749FFAA1BF0
:1034D000B8192168FCF744FFA0682844A06028467A
:1034E000BDE8F08110EE101A016000EE101AC168FC
:1034F000B7EE001A00EE901A20EE200A00EE901AA5
:10350000416831EE601A00EE901A01EE200A10EECA
:10351000101A8160416000EE101A7047002806D032
:1035200000210160416010EE102AC2608160704786
:10353000B5EEC00AF1EE10FA01D2B1EE400A7047C2
:1035400000F00300024900EB400001EBC0007047AF
:10355000843501200148007870470000B100002048
:1035600000487047E4350120004870473839012091
:1035700000487047FC350120004870473A3601206A
:10358000002801DA404200B27047884201DD084657
:1035900070479042FCDA10467047FFF791F9FFF749
:1035A00025F901F0A5F8FEE700B503461846FFF738
:1035B000E7FF02460846FFF7E3FF824204DB1846B6
:1035C0005DF804EBFFF7DCBF08465DF804EBFFF79E
:1035D000D7BF884200D908467047000000281FD096
:1035E00080ED000AC0ED010A80ED021A9FED0D0A80
:1035F00080ED050A80ED060A80ED070A80ED080AD5
:1036000080ED0C0A80ED0F0A80ED0E0A80ED0D0AA8
:1036100080ED100A80ED090A80ED0A0A80ED0B0AA0
:1036200070470000000000002DE9F04104460F46FD
:10363000174EF5683068001D00F030FE38B930686C
:1036400090F82C1001208840316981433161601C61
:1036500007D137B13168BDE8F041091D0D4800F0D0
:1036600055BE2C4430684460AC4206D23168B06B21
:10367000091DBDE8F04100F031BE3168706B091DD5
:1036800000F02CFEB06A844200D2B462BDE8F08142
:10369000240000205402002070B5044600F042FED1
:1036A0001D4DA868401CA860286810B1686938B131
:1036B0000CE02C60A868012808D100F085F905E02D
:1036C0002868E16AC06A884200D82C60686A401C99
:1036D00068622064E06A01212A69814011432961FE
:1036E0000E4900EB800001EB8000211D00F00EFE72
:1036F00000F038FE686900280CD02868E16AC06ACA
:10370000884207D206494FF080500860BFF34F8FC0
:10371000BFF36F8F70BD0000240000208C010020DB
:1037200004ED00E010B500F0FDFD0E4C2068A0B9DE
:103730000D4800F0C5FD0C48143000F0C1FD0A48EA
:10374000E0601430206100220C210A2001F0C6F84C
:10375000206010B105A100F083FEBDE8104000F02C
:1037600001BE00006000002068020020546D72510C
:103770000000000070B5124E124D1CE000F0F0FF8A
:10378000306820B1002401F055FCA4B901E0012407
:10379000F9E700F0C7FDF068C468201D00F07EFD69
:1037A000A868401EA8606868401E686000F0DAFDE6
:1037B000204600F054F868680028DFD170BD000092
:1037C000400200202400002030B40B46026C002A86
:1037D0000CD0C1681144C1604468A14201D30168A2
:1037E000C160C16830BC1846FCF7BABD30BC704738
:1037F0002DE9F041044617460026A56B226C002AED
:1038000010D0C7B1E068FCF7ABFDE168206C091A85
:10381000E1602268914202D26168081AE060022FDA
:1038200016D017E02068A8B9606801F079FB064659
:10383000002060600EE0A068FCF792FD216CA0689B
:103840000844A0606168884204D32068A06001E059
:1038500005B16D1E6D1CA5633046BDE8F08110B545
:103860000446206B00F094FD2046BDE8104000F0B7
:103870008FBD00000749CA681168002904D00021E3
:10388000016019B1002070470121F9E7D068006894
:1038900070470000600000204FF496310F48420747
:1038A00006D0C01D20F007000C49411AC1F5963121
:1038B0000B4A1060002353600144083921F00701CE
:1038C000103A11604B600B600B1A43600160406856
:1038D000906050604FF00040D06070479002002030
:1038E00084000020074E4FF08054074DFFF742FF41
:1038F00030680128FAD92C60BFF34F8FBFF36F8F68
:10390000F4E700008C01002004ED00E070B51D46D6
:10391000049C002909D02260E06321640121204633
:1039200001F0C2F884F84C5070BD2460F4E72DE932
:10393000F0478146DDE908580A9C0E4617469A462C
:10394000B900A522206BFCF750FD206B7F1E00EB19
:10395000870020F00707780707D0202080F3118820
:10396000BFF34F8FBFF36F8FFEE700202218315C4B
:1039700082F83410315C11B1401C0A28F6D30026BD
:1039800084F83D60062D00D30525E562A564E66454
:10399000201D00F0A0FC04F1180000F09CFC246144
:1039A000C5F10600A0616462266584F85460524641
:1039B0004946384600F084FA2060B8F1000F01D083
:1039C000C8F80040BDE8F08770B50024124D04EB44
:1039D000840005EB800000F073FC641C062CF6D319
:1039E0000D48783000F06CFC0B488C3000F068FC1F
:1039F0000948A03000F064FC0748B43000F060FCD7
:103A00000548C83000F05CFC034904487831416344
:103A10001431816370BD00008C010020240000205F
:103A200030B5134900E011460A688242FBD34B6867
:103A30005C18844203D140681844486008460D6809
:103A400044682318AB420DD1094B103B1B689A42C6
:103A500006D05268224442600A681268026002E09E
:103A6000036000E00260814200D0086030BD0000C9
:103A70008400002070B50024416000610C4D91422B
:103A80000AD8D11A8269914201D301240EE0011DA6
:103A9000286900F023FC09E09A4203D2994201D33D
:103AA000012403E0011DE86800F018FC204670BD09
:103AB0006000002010B5044600F034FCA06B20B17B
:103AC000002400F04FFC204610BD0124F9E710B59A
:103AD000044600F027FCA06BE16B884201D1012471
:103AE00000E0002400F03EFC204610BDF8B505467D
:103AF0000E461448C068C068C468201D00F0CEFBA4
:103B0000E069012810D1A0692B46411932462046B0
:103B1000FFF7B0FF40B100200346014600902A465F
:103B2000204601F015FB28B1616A01B02046BDE8CE
:103B3000F0400847202080F31188BFF34F8FBFF378
:103B40006F8FFEE76000002030B585B02B4D4BE055
:103B50000298002848DB049C606910B1201D00F029
:103B60009DFB01A800F094F8024602980A283BD277
:103B7000DFE800F00505053A263705053A260398E3
:103B8000A169034601442046FFF774FF00B3616A50
:103B900020468847E069012826D10020009003983C
:103BA000A169002342181946204601F0D1FA78B9DC
:103BB000202080F31188BFF34F8FBFF36F8FFEE794
:103BC0000398A06128B1811813462046FFF752FFE1
:103BD0000AE0202080F31188BFF34F8FBFF36F8F6F
:103BE000FEE7204600F0D4FB00231A4602A928680D
:103BF00000F096FE0028ABD105B030BD600000207B
:103C0000F8B506460D4600F0ABFD684600F040F8FA
:103C10000446009810B101F00DFAF8BD45B9A6426E
:103C200006D801F007FA21463046FFF75FFFF8BDDE
:103C30000C481DB10169096891B10025311B2A4664
:103C4000006800F01FFC01F0F5F90028EFD10649EB
:103C50004FF080500860BFF34F8FBFF36F8FF8BDF8
:103C60000125EBE76000002004ED00E00748416B10
:103C70000968002905D0416BC968C9684968816233
:103C800070474FF0FF318162704700002400002030
:103C900070B5054601F0D8F80446074EB068844276
:103CA00004D200F00BF80120286001E00020286019
:103CB000B460204670BD000060000020F8B5194EC9
:103CC0001FE0C0680568C468201D00F0E7FA616A5B
:103CD00020468847E069012813D1A0692844A842FA
:103CE00006D960602461211DF06800F0F7FA08E051
:103CF00000200346014600902A46204601F028FA9B
:103D000040B1F06801680029DBD1F0683169F160E9
:103D10003061F8BD202080F31188BFF34F8FBFF3CF
:103D20006F8FFEE76000002009484068401C07D004
:103D3000202080F31188BFF34F8FBFF36F8FFEE712
:103D4000202080F31188BFF34F8FBFF36F8FFEE702
:103D50008C00002008B56846FFF78CFD0099FFF73E
:103D60004FFFFFF7F1FEF6E72DE9F041044600F0C2
:103D7000D9FA94F9455004F1240609E0606A48B183
:103D8000304601F019F908B100F01EFC6D1E6DB24D
:103D9000002DF3DC4FF0FF3684F8456000F0E2FAC6
:103DA00000F0C0FA94F9445004F1100709E02069CA
:103DB00048B1384601F000F908B100F005FC6D1E6D
:103DC0006DB2002DF3DC84F84460BDE8F04100F0F2
:103DD000C9BA00002DE9F0410546002600F0C0FCFC
:103DE000304F386808B9FFF757FDF86805424AD1E7
:103DF0008DB1083568070ED005F00700C0F1080046
:103E00000544680707D0202080F31188BFF34F8F47
:103E1000BFF36F8FFEE7B5B37868854233D8214989
:103E200010310846046801E0214604466068A84253
:103E300002D220680028F7D13868844223D00E6867
:103E40000836206808606068411B10290ED9601987
:103E5000420707D0202080F31188BFF34F8FBFF3B4
:103E60006F8FFEE741606560FFF7DAFD6168786893
:103E7000401A7860BA68904200D2B860F86801438E
:103E800061600020206001F0D5F8700707D0202085
:103E900080F31188BFF34F8FBFF36F8FFEE730467B
:103EA000BDE8F0817400002004490868002803D0B0
:103EB0000868C26C521CC264086870472400002065
:103EC00024384FF08073036221F00101C16104497D
:103ED000816142606FF0020140F8201970470000D4
:103EE000293D00080148408D70470000EC34012056
:103EF0000248006E00EE100A70470000EC3401200A
:103F00000148B0F864007047EC340120024890F892
:103F10008100000970470000EC3401202DE9F04FCA
:103F2000ADF5017D4FF00008DFF834914FF40072D9
:103F300001A9D9F80000FFF7ACFA0646300071D0AD
:103F4000DFF820A1AAF8006000250DF1040B0AF1AA
:103F5000800777E01BF80500A52871D10BEB05045D
:103F60002068C9F80400207989F808002046052156
:103F7000FEF798FF012863D1617809312046FEF7EA
:103F800071FF01285CD180466079A17940EA012067
:103F9000CAF8040040F20322A0F2032190422DD07F
:103FA0000BDC032810D0B0F5817F14D0A0F5007091
:103FB000013815D001283DD119E0032925D0042965
:103FC00026D0052936D12EE02648E11D20220E30CC
:103FD000FCF7C6F92EE0D4F80700CAF8380029E04B
:103FE0002048E11D1B224130FCF7BAF922E01D48B0
:103FF000E11D10225C30FCF7B3F91BE01948E11D0C
:1040000010226C30FCF7ACF914E0E079787011E024
:1040100054F8070FC7F80300A088A7F80700A07995
:10402000787207E010E054F8070FC7F80B00A0887B
:10403000A7F80F000A48001DB0F80100284485B217
:104040006D1CADB2B54285D3D9F80000C18909B164
:104050000021C1810DF5017D4046BDE8F08F0000D3
:10406000A8000020EC3401200148408B704700007C
:10407000EC3401200148B0F843007047EC340120D3
:10408000014890F841007047EC3401200148B0F835
:1040900066007047EC3401200148B0F849007047D1
:1040A000EC3401200148B0F868007047EC3401207E
:1040B000052000F001B800002DE9F04F91B0064650
:1040C00001210420FEF780F801212020FEF7B4F83A
:1040D0006C4D082206212846FDF718FE082207210C
:1040E0002846FDF713FEC0200F9002208DF84000F7
:1040F00000248DF8424003208DF841008DF84340A4
:104100000FA92846FDF7C4FD5F48FEF7F9FC4FF400
:10411000E1300A90ADF82C40ADF82E40ADF83040BB
:104120000C20ADF83200ADF834400AA95648FEF72D
:10413000A9FD47208DF8380001258DF83B508DF8FA
:1041400039608DF83A400EA8FEF700F8012240F2DF
:1041500025514D48FEF77BFD002240F226614A487A
:10416000FEF775FD012240F224414748FEF76FFD3E
:1041700001214548FEF7AEFC4FF4800B0121584663
:10418000FEF722F84148FDF78BFB02A8FDF7B2FCD1
:104190004FF02069CDF80890DFF8ECA00AF1040A8E
:1041A000CDF80CA03A480490402005908600069671
:1041B00007940701089709940A940B944FF4403828
:1041C000CDF830800D940E940F94109402A92F48CE
:1041D000FDF764FC45208DF804008DF805508DF83E
:1041E00006408DF8075001A8FDF7B0FF012210210D
:1041F0002648FDF739FC00212448FDF745FB012244
:1042000080212148FEF772FC2249324601F58B706D
:10421000FFF72FF901215846FDF7D6FFDFF86CB004
:10422000ABF1780B5846FDF73BFB02A8FDF762FCAB
:10423000CDF80890CDF80CA01748049005946D02B5
:1042400006950794089709940A940B96CDF8308048
:104250000D940E940F94109402A95846FDF71EFC7D
:1042600001215846FDF710FB012240210648FEF7C8
:104270003DFC09492A4601F20240FFF7FAF811B065
:10428000BDE8F08F0008024000140140A064024025
:10429000C2320120C2330120C23001200169D0E9BD
:1042A00001329A60D0E901235A604A68824201D102
:1042B00082684A60002202610868401E08607047F8
:1042C00000F1080141604FF0FF328260C16001617E
:1042D00000210160704700210161704730B50C6812
:1042E000621C02D000F1080202E0026904E01A46F2
:1042F00053681D68A542FAD953684B6099608A607B
:10430000516008610168491C016030BD42684A6023
:1043100093688B6093685960916008610168491CDB
:1043200001607047202080F31188BFF34F8FBFF3E7
:104330006F8F0A494868401C486001280CD1084822
:10434000006810F0FF0F07D0202080F31188BFF322
:104350004F8FBFF36F8FFEE7704700008C00002087
:1043600004ED00E009494868002806D0401E486076
:10437000002801D180F311887047202080F3118834
:10438000BFF34F8FBFF36F8FFEE700008C0000205C
:1043900070B5002827D008380446134D6068E968D6
:1043A000084207D1202080F31188BFF34F8FBFF35D
:1043B0006F8FFEE722683AB1202080F31188BFF3A7
:1043C0004F8FBFF36F8FFEE78843606000F0C8F93E
:1043D00060686968084468602046FFF721FBBDE813
:1043E000704000F027BE70BD7400002006484FF4F6
:1043F0007A710068B0FBF1F14FF0E020491E416195
:1044000007210161704700000000002010B5FBF794
:1044100083FF114910280ED300F1E02090F8F0033B
:104420000A78904207D2202080F31188BFF34F8F83
:10443000BFF36F8FFEE709480068896800F4E06009
:10444000884207D9202080F31188BFF34F8FBFF334
:104450006F8FFEE710BD00008C0000200CED00E027
:1044600010B50022064B53F832401CB1521C082AEA
:10447000F9D310BD43F8321003EBC201486010BD00
:104480004C01002070B504460D461646FFF74AFF62
:1044900094F944304FF000005B1C01D184F84400D3
:1044A00094F94510491C01D184F84500FFF75AFFE3
:1044B000A06B28B93246294604F1240000F0A4F884
:1044C0002046BDE87040FFF74FBC000010B5024623
:1044D0000020002A12D00F48006B38B1202080F352
:1044E0001188BFF34F8FBFF36F8FFEE700F038F9ED
:1044F00000211046FFF798F800F09CFD002807D136
:1045000005494FF080500860BFF34F8FBFF36F8FA6
:1045100010BD00002400002004ED00E070B504464A
:10452000FFF700FF254D04B92C68201DFFF7B6FEEC
:1045300058B9E06A224A00EB800152F8211021B9F3
:1045400001218140286988432861A06A18B104F1DB
:104550001800FFF7A3FE686A401C6862286884425E
:1045600008D11748211DB430FFF7D0FE6868401C01
:10457000686007E0A868401EA8602046FFF76FF952
:10458000FFF774FBFFF7EEFE6869002814D0286877
:10459000844211D1286B38B1202080F31188BFF3F9
:1045A0004F8FBFF36F8FFEE706494FF080500860D2
:1045B000BFF34F8FBFF36F8F70BD0000240000204A
:1045C0008C01002004ED00E001490120C861704722
:1045D0002400002010B50C4600280AD009490968BB
:1045E0001831FFF77BFE2046BDE810400121FFF7A0
:1045F0001BB8202080F31188BFF34F8FBFF36F8F5C
:10460000FEE700002400002070B50D461446002887
:104610000DD00B4909681831FFF778FE0CB14FF047
:10462000FF3521462846BDE87040FEF7FDBF20203B
:1046300080F31188BFF34F8FBFF36F8FFEE7000049
:104640002400002070B50446002839D01D4DE06AD2
:104650002968C96A884233D2A069002804DB286827
:10466000C06AC0F10600A061E06A174E00EB80004E
:10467000616906EB800081421FD1201DFFF70EFE0D
:10468000012150B9E06A00EB800256F8222022B9DD
:104690002A6901FA00F082432A612868C06AE06250
:1046A0002A6981401143296100EB800006EB8000FC
:1046B000211DBDE87040FFF729BE2868C06AE0628E
:1046C00070BD0000240000208C010020002805D0CF
:1046D00006490A6A0260C96841607047202080F379
:1046E0001188BFF34F8FBFF36F8FFEE724000020C8
:1046F0001CB517480024CDE900402346822215A1AD
:10470000164800F063FB012801D100F0F9FC0128F4
:1047100009D0401C1AD1202080F31188BFF34F8F9D
:10472000BFF36F8FFEE7202080F31188BFF34F8F18
:10473000BFF36F8F06484FF0FF312C3881620121A3
:104740004161C460BDE81C4000F042B81CBD0000DF
:104750005000002049444C4500000000E5380008A6
:104760000248016B491C01637047000024000020CF
:10477000154A106B002802D00120D061704700203C
:10478000D0611069B0FA80F0C0F11F000F4900EB52
:10479000800051F8203073B101EB80004168496816
:1047A000416000F10803994201D1496841604068C5
:1047B000C06810607047202080F31188BFF34F8FCE
:1047C000BFF36F8FFEE70000240000208C01002063
:1047D0001CB532480168324A914207D1202080F34B
:1047E0001188BFF34F8FBFF36F8FFEE700682C492E
:1047F000491E884207D1202080F31188BFF34F8FD4
:10480000BFF36F8FFEE7274908780190FF200870FB
:10481000087800909DF800009DF8002000F0F0005E
:10482000904207D0202080F31188BFF34F8FBFF351
:104830006F8FFEE79DF800001B4A00F0200010700B
:104840000720906006E09068401E90609DF8000090
:10485000400000909DF800000006F4D4107A000299
:1048600000F4E0609060019808700C482030016806
:1048700041F470010160016841F070410160FFF78F
:10488000B5FD00205060FBF70FFD0848016841F0BE
:1048900040410160FBF7F8FC00201CBD00ED00E08A
:1048A00071C20F4100E400E08C00002034EF00E012
:1048B00010B5202080F31188BFF34F8FBFF36F8FA7
:1048C00000F0C8FA18B104494FF080500860002089
:1048D00080F3118810BD000004ED00E0F8B5054636
:1048E0000E461746002D11D0C6B105FB06F050301C
:1048F000FFF770FA04463CB104F150023B463146E2
:1049000028460094FFF702F82046F8BD202080F3E7
:104910001188BFF34F8FBFF36F8FFEE70020E6E7EC
:104920002DE9FF4F83B004468A469B460026002CA3
:1049300003D0BAF1000F08D011E0202080F31188D5
:10494000BFF34F8FBFF36F8FFEE7206C38B120208D
:1049500080F31188BFF34F8FBFF36F8FFEE700F036
:1049600065FA48B9059838B1202080F31188BFF363
:104970004F8FBFF36F8FFEE74FF000094FF0805766
:10498000DFF82081FFF7CEFCA56B95B3E6685146B2
:104990002046FEF719FFBBF1000F13D0E660606AF6
:1049A00050B104F1240000F007FB28B1C8F80070F2
:1049B000BFF34F8FBFF36F8FFFF7D4FC012007B019
:1049C000BDE8F08F6D1EA563206810B9FFF76CFA83
:1049D000606020690028EFD004F1100000F0ECFACC
:1049E0000028E9D0C8F80070BFF34F8FBFF36F8F76
:1049F000E2E7FFE7059808B126B107E0FFF7B2FC50
:104A00000020DCE701A8FFF761FE0126FFF7AAFC02
:104A1000FFF7A6FEFFF786FC94F94400401C01D185
:104A200084F8449094F94500401C01D184F84590E5
:104A3000FFF798FC05A901A800F08EF958B12046AF
:104A4000FFF792F900F0F6FA2046FFF733F8002856
:104A500098D00020B3E72046FFF72CF8E0B120689B
:104A600030B9FFF75FFC6068FFF7ECFDFFF77AFCF9
:104A700004F124000599FFF7ADFD2046FFF774F916
:104A800000F0D8FA00287FF47DAFC8F80070BFF3BB
:104A90004F8FBFF36F8F75E72046FFF765F900F082
:104AA000C9FA6FE704ED00E070B504460D46002C2E
:104AB00025D0FFF737FCD4E90F20216802FB001155
:104AC00061600021A1632168A160E06B2268216C14
:104AD000401E00FB0121E1604FF0FF3084F84400EC
:104AE00084F8450004F110008DB1FFF7E9FB04F1F3
:104AF0002400FFF7E5FBFFF735FC012070BD202007
:104B000080F31188BFF34F8FBFF36F8FFEE72169EA
:104B10000029F0D000F050FA0028ECD004494FF002
:104B200080500860BFF34F8FBFF36F8FE3E7000043
:104B300004ED00E02DE9FF4782B004468A461E4698
:104B40000025002C03D0BAF1000F08D011E020207E
:104B500080F31188BFF34F8FBFF36F8FFEE7206C98
:104B600038B1202080F31188BFF34F8FBFF36F8FD0
:104B7000FEE7022E0AD1E06B012807D0202080F347
:104B80001188BFF34F8FBFF36F8FFEE700F04EF930
:104B900048B9049838B1202080F31188BFF34F8FB3
:104BA000BFF36F8FFEE74FF000094FF08057DFF83B
:104BB000E480FFF7B7FBA06BE16B884205D3022EC0
:104BC00003D0049808B325B327E032465146204667
:104BD000FEF70EFE616A59B104F1240000F0ECF911
:104BE00068B1C8F80070BFF34F8FBFF36F8F06E056
:104BF00028B1C8F80070BFF34F8FBFF36F8FFFF776
:104C0000B1FB012006B0BDE8F087FFF7ABFB002049
:104C1000F8E76846FFF75AFD0125FFF7A3FBFFF70A
:104C20009FFDFFF77FFB94F94400401C01D184F8FD
:104C3000449094F94500401C01D184F84590FFF759
:104C400091FB04A9684600F087F830B12046FFF7D1
:104C50008BF800F0EFF90020D4E72046FEF737FF8D
:104C600090B104F110000499FFF7B4FC2046FFF75F
:104C70007BF800F0DFF900289BD1C8F80070BFF383
:104C80004F8FBFF36F8F94E72046FFF76DF800F06A
:104C9000D1F98EE704ED00E02DE9F047044689469E
:104CA00090461F46002C03D0B9F1000F08D011E048
:104CB000202080F31188BFF34F8FBFF36F8FFEE783
:104CC000206C38B1202080F31188BFF34F8FBFF3E1
:104CD0006F8FFEE7022F0AD1E06B012807D020205A
:104CE00080F31188BFF34F8FBFF36F8FFEE7FFF79D
:104CF0008DFB2020EFF3118680F31188BFF34F8FD7
:104D0000BFF36F8FA06BE16B884206D3022F04D0F4
:104D1000002086F31188BDE8F08794F945503A46A3
:104D200049462046FEF764FD681C04D06D1C84F8DB
:104D300045500120EDE7606A0028FAD004F1240014
:104D400000F03AF90028F4D0B8F1000FF1D00120BA
:104D5000C8F80000EDE7000070B504460D46002CD1
:104D600010D0BDB1FFF7DEFA174AD06829684B1C96
:104D700018D02368126A934216D06268824213D810
:104D800001241DE0202080F31188BFF34F8FBFF373
:104D90006F8FFEE7202080F31188BFF34F8FBFF3A2
:104DA0006F8FFEE700240BE06268801A884206D20B
:104DB000081A28602046FFF789FC002400E001243F
:104DC000FFF7D0FA204670BD240000202DE9FF5FD8
:104DD0008146DDE90E788A4616469B46B000FEF70E
:104DE000F9FF054628000AD05820FEF7F3FF0446D5
:104DF0000CB1256304E02846FFF7CAFA00E000245E
:104E00008CB10020CDE90240CDE900785B46324606
:104E100051464846FEF78BFD2046FEF73DFC01203B
:104E200004B0BDE8F09F4FF0FF30F9E70548416955
:104E3000002903D0006B18B1002070470120704793
:104E400002207047240000200148C068704700001D
:104E5000240000202DE9F04100262F4F386B002858
:104E600008D0B869401CB861F86900B10126304625
:104E7000BDE8F081FD686D1CFD609DB9786B006830
:104E800038B1202080F31188BFF34F8FBFF36F8FAD
:104E9000FEE7786BB96B7963B863386A401C386297
:104EA000FEF7E4FEB86ADFF8748085420DD3786BB4
:104EB000006838B1786BC068C468606885420ED2FB
:104EC000B86202E04FF0FF30B8623868C06A00EBA9
:104ED000800058F820000128C6D90126C4E7201D0B
:104EE000FFF7DCF9A06A18B104F11800FFF7D6F952
:104EF000E06A01213A6981401143396100EB800089
:104F000008EB8000211DFFF701FAE06A3968C96AE1
:104F10008842CCD30126CAE7240000208C0100205F
:104F200070B504460020002C41D0214D29688C42E8
:104F300007D0202080F31188BFF34F8FBFF36F8F0E
:104F4000FEE7E16C71B1491EE164A36CE26A9A422A
:104F50002DD000292BD1201DFFF7A0F9154A0121E2
:104F600040B112E0202080F31188BFF34F8FBFF3D0
:104F70006F8FFEE7E06A00EB800352F8233023B91D
:104F800001FA00F3286998432861A06CE062C0F13F
:104F90000600A061E06A2B6981401943296100EB9A
:104FA000800002EB8000211DFFF7B0F9012070BDE9
:104FB000240000208C0100202DE9F041C068C46865
:104FC000002C15D004F118000746FFF767F9174DBC
:104FD0002A6B0126A2B139461548FFF797F9E06A16
:104FE0002968C96A88421ED90120EE61BDE8F081B6
:104FF000202080F31188BFF34F8FBFF36F8FFEE740
:10500000201DFFF74BF9E06A2A6906FA00F1114307
:105010002961074900EB8000A03901EB8000211DC8
:10502000FFF774F9DBE70020E0E700002400002030
:105030002C0200202DE9F041002400272D4D286B83
:10504000002807D0FFF76EF9286B401E2863286BF5
:1050500040B14AE0202080F31188BFF34F8FBFF3A7
:105060006F8FFEE7A868E8B3DFF88C8001261EE0AA
:10507000D8F80C00C46804F11800FFF70FF9201DE0
:10508000FFF70CF9E06A2A6906FA00F11143296179
:10509000194900EB8000A03901EB8000211DFFF7CA
:1050A00035F9E06A2968C96A884200D3EE61D8F808
:1050B00000000028DCD10CB1FEF7D8FDAC6944B18A
:1050C000FFF7C8FE00B1EE61641E002CF8D100208D
:1050D000A861E86930B10127084938070860BFF3C3
:1050E0004F8F00E001E0BFF36F8FFFF73BF93846C9
:1050F000BDE8F081240000202C02002004ED00E037
:105100001CB50024FEF70EFB0D48006860B10C488A
:105110000221001DCDE9001000234FF4827209A185
:105120000A48FFF753FE04460CB120461CBD202060
:1051300080F31188BFF34F8FBFF36F8FFEE700003E
:1051400060000020546D722053766300553D0008C6
:10515000FEB50646089F9C460020002E13D0154D34
:105160002C68002C0ED0009101920296062919DAC3
:10517000FFF75CFE02280ED000231A466946286815
:10518000FFF7D8FCFEBD202080F31188BFF34F8FBE
:10519000BFF36F8FFEE700233A4669462868FFF7A2
:1051A000C9FCFEBD0023624669462046FFF774FD38
:1051B000FEBD0000600000204FF04070E1EE100ADC
:1051C0007047005EBCE2613FDD83C29C7E20A3FD90
:1051D0001F419DC3217FFCA2401E5F01E3BD3E60D5
:1051E00082DC237D9FC1421CFEA0E1BF5D0380DE07
:1051F0003C62BEE0025CDF81633D7C22C09E1D43B9
:10520000A1FF4618FAA427799BC584DA3866E5BB66
:105210005907DB856739BAE406581947A5FB782694
:10522000C49A653BD987045AB8E6A7F91B45C698C6
:105230007A24F8A6441A99C7257B3A6486D85B0578
:10524000E7B98CD2306EEDB3510F4E10F2AC2F7126
:1052500093CD114FADF3702ECC92D38D6F31B2EC54
:105260000E50AFF1134DCE90722C6D33D18F0C5286
:10527000B0EE326C8ED0530DEFB1F0AE4C1291CF38
:105280002D73CA947628ABF517490856B4EA6937E6
:10529000D58B5709EBB536688AD495CB2977F4AA14
:1052A0004816E9B7550B88D6346A2B7597C94A1446
:1052B000F6A8742AC896154BA9F7B6E80A54D789F8
:1052C0006B350000891112239B322446AD57366599
:1052D000BF74488CC19D5AAFD3BE6CCAE5DB7EE972
:1052E000F7F88110080193331A22A5562C47B77599
:1052F0003E64C99C408DDBBF52AEEDDA64CBFFF952
:1053000076E802218B30100299132667AF76344479
:10531000BD554AADC3BC588ED19F6EEBE7FA7CC831
:10532000F5D983310A2091121803A7772E66B55458
:105330003C45CBBD42ACD99E508FEFFB66EAFDD811
:1053400074C904428D5316619F702004A915322739
:10535000BB364CCEC5DF5EEDD7FC6888E1997AABF1
:10536000F3BA85520C4397711E60A1142805B33718
:105370003A26CDDE44CFDFFD56ECE9986089FBBBD1
:1053800072AA06638F7214409D512225AB343006F9
:10539000B9174EEFC7FE5CCCD5DD6AA9E3B8788AB1
:1053A000F19B87730E6295501C41A3352A24B116D8
:1053B0003807CFFF46EEDDDC54CDEBB962A8F99A91
:1053C000708B088481951AA793B62CC2A5D33EE1B1
:1053D000B7F04008C919522BDB3A644EED5F766D89
:1053E000FF7C899400859BB712A6ADD224C3BFF180
:1053F00036E0C1184809D33B5A2AE55E6C4FF77D69
:105400007E6C0AA583B4188691972EE3A7F23CC060
:10541000B5D14229CB38500AD91B666FEF7E744C48
:10542000FD5D8BB502A499961087AFF326E2BDD03F
:1054300034C1C3394A28D11A580BE77F6E6EF55C28
:105440007C4D0CC685D71EE597F42880A1913AA320
:10545000B3B2444ACD5B5669DF78600CE91D722F08
:10546000FB3E8DD604C79FF516E4A9902081BBB3FF
:1054700032A2C55A4C4BD7795E68E11C680DF33FE8
:105480007A2E0EE787F61CC495D52AA1A3B03882E0
:10549000B193466BCF7A5448DD59622DEB3C700EC8
:1054A000F91F8FF706E69DD414C5ABB122A0B992BF
:1054B0003083C77B4E6AD5585C49E33D6A2CF11EA8
:1054C000780F0000E4540008000000204C010000A8
:1054D000C4010008205500084C010020AC3E01002A
:1054E0002002000811847A030A68090102030406F5
:1054F0000708090CA91001681AAA01C125C43401C2
:10550000204BFFFF082999211B020205910718AEC5
:1055100001AE015802034488130324803F000000B9
:040000050800018965
:00000001FF
